:100000000C9463000C948B000C948B000C948B006C
:100010000C948B000C948B000C948B000C948B0034
:100020000C948B000C943D060C948B000C948B006C
:100030000C948B000C948B000C948B000C948B0014
:100040000C945D030C948B000C94F90A0C94D30A65
:100050000C948B000C948B000C948B000C948B00F4
:100060000C940F050C948B00000000002400270066
:100070002A0000000000250028002B0000000000DE
:1000800023002600290004040404040404040202DA
:100090000202020203030303030301020408102007
:1000A0004080010204081020010204081020000012
:1000B0000008000201000003040700000000000027
:1000C00000007A14FB0F11241FBECFEFD8E0DEBF73
:1000D000CDBF24E0AAE0B2E001C01D92A33EB2076A
:1000E000E1F712E0A0E0B1E0E6E4F4E302C005903D
:1000F0000D92AA30B107D9F710E0C2E6D0E004C0F3
:100100002197FE010E940018C136D107C9F70E944D
:100110000B100C94161A0C940000FC01538D448DA6
:10012000252F30E0842F90E0821B930B541710F0A2
:10013000CF96089501970895FC01918D828D9817AF
:1001400061F0828DDF01A80FB11D5D968C91928DBB
:100150009F5F9F73928F90E008958FEF9FEF0895B8
:10016000FC01918D828D981731F0828DE80FF11D81
:10017000858D90E008958FEF9FEF0895FC01918D9C
:10018000228D892F90E0805C9F4F821B91098F7395
:100190009927089580E090E0892B29F00E94C90AF0
:1001A00081110C9400000895833081F028F481308F
:1001B00099F08230A1F008958730A9F08830B9F025
:1001C0008430D1F4809180008F7D03C080918000C5
:1001D0008F7780938000089584B58F7702C084B5AF
:1001E0008F7D84BD08958091B0008F7703C080918A
:1001F000B0008F7D8093B00008951F93CF93DF935D
:10020000282F30E0F901E255FF4F8491F901E656BD
:10021000FF4FD491F901EA57FF4FC491CC23C1F0AD
:10022000162F81110E94D400EC2FF0E0EE0FFF1F7B
:10023000EE58FF4FA591B4919FB7F894111104C0E7
:100240008C91D095D82302C0EC91DE2BDC939FBF1C
:10025000DF91CF911F91089585ED8093BC0080912F
:10026000BC0084FDFCCF1092AA02089540914E027A
:10027000262F30E0240F311D21323105DCF420918E
:10028000AA022430C9F4FC0180E090E0861758F4FB
:1002900030914E022191DC01A45DBD4FA30FB11D31
:1002A0002C930196F3CF80914E02680F60934E021B
:1002B00080E0089581E0089582E00895089508950A
:1002C0000895E0912B0280912A02E81730F4F0E0C3
:1002D000E65FFD4F808190E008958FEF9FEF0895D6
:1002E00090912B0280912A02981750F4E92FF0E0A8
:1002F000E65FFD4F208130E09F5F90932B0202C0AC
:100300002FEF3FEFC901089580912A0290E02091DC
:100310002B02821B91090895CF92DF92EF92FF92F8
:100320000F931F93CF93DF937C01CB018A01209120
:10033000AB02222389F0EB016B01C40ED51ECC1554
:10034000DD0569F06991D701ED91FC910190F08193
:10035000E02DC7010995F3CF642F0E943601C80133
:10036000DF91CF911F910F91FF90EF90DF90CF9091
:100370000895CF93DF931F92CDB7DEB769832091A5
:10038000AB022223D1F02091CE02203240F021E0B6
:1003900030E0FC013383228380E090E015C080913F
:1003A000AC02E82FF0E0E355FD4F998190838F5F19
:1003B0008093AC028093CE0205C061E0CE0101962D
:1003C0000E94360181E090E00F90DF91CF91089577
:1003D000089580E090E00895E0917C02F0917D0224
:1003E00020813181828193812817390791F490917E
:1003F000C203E091C003F091C10380E09817C1F0FF
:10040000208131812C5E314009F412868F5F3B964A
:10041000F5CF88E089B9E0917C02F0917D022481DA
:1004200080819181820F911D27FD9A959183808310
:100430000895E0917E02F0917F02208131818281D6
:1004400093812817390779F084E089B9E0917E0219
:10045000F0917F02248180819181820F911D27FD7F
:100460009A959183808308950E94ED19FC01848DF3
:10047000DF01A80FB11DA35ABF4F2C91848D90E0CE
:1004800001968F739927848FA689B7892C93A089A9
:10049000B1898C91837080648C93938D848D981333
:1004A00006C00288F389E02D80818F7D80830895C6
:1004B000EF92FF920F931F93CF93DF93EC0181E0B4
:1004C000888F9B8D8C8D981305C0E889F989808170
:1004D00085FD26C0F62E0B8D10E00F5F1F4F0F73AA
:1004E0001127E02E8C8DE8120CC00FB607FCFACF56
:1004F000E889F989808185FFF5CFCE010E94360217
:10050000F1CF8B8DFE01E80FF11DE35AFF4FF08212
:100510009FB7F8940B8FEA89FB89808180620AC0BB
:100520009FB7F894EE89FF896083E889F989808113
:100530008370806480839FBF81E090E0DF91CF91E2
:100540001F910F91FF90EF900895CF93DF93EC01EF
:10055000888D8823C9F0EA89FB89808185FD05C0E3
:10056000A889B9898C9186FD0FC00FB607FCF5CF1D
:10057000808185FFF2CFA889B9898C9185FFEDCF65
:10058000CE010E943602E7CFDF91CF910895CF933D
:10059000DF93282F30E0F901E255FF4F8491F901F4
:1005A000E656FF4FD491F901EA57FF4FC491CC238F
:1005B00091F081110E94D400EC2FF0E0EE0FFF1FAC
:1005C000E458FF4FA591B491EC91ED2381E090E0C8
:1005D00021F480E002C080E090E0DF91CF910895A7
:1005E000CF93DF9390E0FC01E656FF4F2491FC018E
:1005F000EA57FF4F8491882361F190E0880F991F9B
:10060000FC01E859FF4FC591D491FC01EE58FF4F12
:10061000A591B491611109C09FB7F8948881209584
:1006200082238883EC912E230BC0623061F49FB744
:10063000F8948881322F309583238883EC912E2B78
:100640002C939FBF06C08FB7F894E8812E2B288388
:100650008FBFDF91CF9108953FB7F89480917802D2
:1006600090917902A0917A02B0917B0226B5A89B65
:1006700005C02F3F19F00196A11DB11D3FBFBA2F34
:10068000A92F982F8827820F911DA11DB11DBC0194
:10069000CD0142E0660F771F881F991F4A95D1F759
:1006A00008952FB7F894609174027091750280914B
:1006B0007602909177022FBF08951F920F920FB686
:1006C0000F9211242F933F938F939F93AF93BF93D8
:1006D0008091740290917502A0917602B091770298
:1006E0003091730223E0230F2D3720F40196A11DD2
:1006F000B11D05C026E8230F0296A11DB11D209350
:1007000073028093740290937502A0937602B09363
:1007100077028091780290917902A0917A02B0914B
:100720007B020196A11DB11D8093780290937902FE
:10073000A0937A02B0937B02BF91AF919F918F916A
:100740003F912F910F900FBE0F901F9018958F9291
:100750009F92AF92BF92CF92DF92EF92FF92CF9390
:10076000DF93EC01CB01BA0120E030E044EB52E42E
:100770000E94BF166B017C0120E030E0A9010E94BD
:10078000411587FD11C020E030E044E353E4C70188
:10079000B6010E94D317181654F4C12CD12C84E34F
:1007A000E82E83E4F82E03C0C12CD12C76018A8177
:1007B0000990D881C02D81110DC02C813D814E81C1
:1007C0005F81C701B6010E94A715288139814A813E
:1007D0005B8173C020E030E044EB52E4C701B60116
:1007E0000E94411518164CF12C813D814E815F818C
:1007F000C701B6010E94A715288139814A815B8112
:100800000E94BF164B015C01288539854A855B85AE
:10081000C701B6010E94A715A70196010E94A7155E
:100820009B01AC01C501B4010E94BF164B015C01E4
:100830002C853D854E855F8530C020E030E044EB5F
:1008400052E4C701B6010E94BE166B017C012C89DF
:100850003D894E895F890E94A715288939894A896F
:100860005B890E94BF164B015C01288D398D4A8D32
:100870005B8DC701B6010E94A715A70196010E94D2
:10088000A7159B01AC01C501B4010E94BF164B0125
:100890005C012C8D3D8D4E8D5F8DC701B6010E9490
:1008A000A715A70196010E94A715A70196010E940E
:1008B000A7159B01AC01C501B4010E94BF166B01D5
:1008C0007C0120E030E0A9010E94D31720E030E055
:1008D00040E05FE387FD13C0C701B6010E94BF1669
:1008E0000E949D1777FD1AC020E030E040E05FE3F2
:1008F000C701B6010E94BF160E949D1708C0C7011C
:10090000B6010E94BE160E949D1777FD07C0CB015D
:100910006130704128F080E090E102C080E090E01A
:10092000DF91CF91FF90EF90DF90CF90BF90AF908D
:100930009F908F900895DC018D919C91DC01ED9149
:10094000FC910190F081E02D0994EF92FF920F93BA
:100950001F93CF93DF938C01EB017A016F3F8FEFF1
:10096000780721F0660F660F6A5F01C06AEFF80131
:100970008281168291E09093AB028093CD02109217
:10098000AC021092CE02C8010E949B04D7FD12C097
:10099000F80183819481009719F4DC2FCC270CC0D7
:1009A000019741F4CC0FDD1FC65EDE4F0990D88160
:1009B000C02D02C0C0E0D0E0E114F10489F0E114E0
:1009C000F0E1FF0620F0D061E12CF12C0CC0EC0E20
:1009D000FD1EE11480E1F80630F0E0E1FE1A03C0EC
:1009E000E12C80E1F82E6C2FC8010E949B046D2F32
:1009F000C8010E949B046E2DC8010E949B046F2DAC
:100A0000C8010E949B0481E00E942B0BF8018683A1
:100A1000DF91CF911F910F91FF90EF9008951F925A
:100A20000F920FB60F9211242F933F934F935F9322
:100A30006F937F938F939F93AF93BF93EF93FF93A6
:100A40008091B900887F803609F49CC068F58832AF
:100A500009F45BC090F4803109F454C038F4882361
:100A600009F4F6C0883009F44DC0F6C0883109F4A5
:100A70004CC0803209F45DC0EFC0803409F468C016
:100A800048F4803309F455C0883309F0E5C08093F9
:100A9000A802D8C0803509F44FC0883509F45DC07C
:100AA000883409F0D9C0D6C0883909F4C7C0A8F481
:100AB000883709F467C038F4883609F463C0803792
:100AC00009F460C0C9C0883809F4B8C0803909F495
:100AD0005FC0803809F0C0C05BC0803B09F486C0AD
:100AE00038F4803A09F466C0883A09F47FC0B4C08B
:100AF000803C09F4A7C0883C09F4A4C0883B09F4F1
:100B00008AC0AAC08091850210C09091A7028091EE
:100B1000A602981770F5E091A70281E08E0F8093EE
:100B2000A702F0E0EA57FD4F80818093BB0085EC7F
:100B300086C08093A8028EC0E091A70281E08E0F4C
:100B40008093A7028091BB00F0E0EA57FD4F8083BD
:100B50009091A7028091A6026EC0E091A70281E069
:100B60008E0F8093A7028091BB00F0E0EA57FD4F03
:100B700080838091A90281116DC081E080938402FD
:100B800084EA61C083E08093AA0210927202CFCF00
:100B900080917202803208F051C0E091720281E0CF
:100BA0008E0F809372028091BB00F0E0EE5AFD4FF1
:100BB0008083BDCF85EC8093BC001092AA02809107
:100BC0007202803230F4E0917202F0E0EE5AFD4F92
:100BD00010826091720270E0E0915002F091510237
:100BE00082E592E009951092720236C084E080930B
:100BF000AA0210924F0210924E02E0914C02F09124
:100C00004D02099580914E02811105C081E08093CB
:100C10004E0210922C02E0914F0281E08E0F8093E1
:100C20004F02F0E0E45DFD4F80818093BB00909126
:100C30004F0280914E02981708F479CF85E880938F
:100C4000BC000AC085EC8093BC001092AA0204C0CC
:100C50001092A8020E942C01FF91EF91BF91AF91D9
:100C60009F918F917F916F915F914F913F912F91C4
:100C70000F900FBE0F901F9018951F920F920FB6F6
:100C80000F921124CF92DF92EF92FF920F931F9356
:100C90002F933F934F935F936F937F938F939F9384
:100CA000AF93BF93CF93DF93EF93FF930E945103D2
:100CB0006093CE037093CF038093D0039093D103BE
:100CC0008091C5039091C603A091C703B091C8035A
:100CD00080589F4FAF4FBF4F8093C5039093C6037B
:100CE000A093C703B093C8034091C9035091CA03AE
:100CF0006091CB037091CC0384179507A607B707C3
:100D0000D0F4481B590B6A0B7B0B9A012F773327C2
:100D1000220F331F8FEF90E0821B930B9093C4033D
:100D20008093C303403851056105710510F082E0DE
:100D3000FBC08E5FF9C01092C5031092C6031092DB
:100D4000C7031092C80310E03091C2038091C00322
:100D50009091C103131708F046C02BE0129FE001E9
:100D60001124FC01EC0FFD1F22852223D1F14681C5
:100D70005781608571852091CD03DC013BE0239F85
:100D8000A00DB11D112416968D919D910D90BC91D1
:100D9000A02D481759076A077B0799F40190F08145
:100DA000E02D09958091C0039091C103C80FD91F10
:100DB0008A819B81AC81BD818E839F83A887B987FF
:100DC00010C08091C9039091CA03A091CB03B09148
:100DD000CC03481B590B6A0B7B0B468357836087F8
:100DE00071871F5FB1CF1092CD03FC0121E0231763
:100DF000F8F445894423C9F04091CD03DC015BE060
:100E0000459FA00DB11D1124C188D288E388F488C4
:100E100016964D915D916D917C911997C416D506EA
:100E2000E606F70610F42093CD032F5F3B96DFCF45
:100E30002091CD03FC013BE0239FE00DF11D112427
:100E400086819781A085B1858093C9039093CA0359
:100E5000A093CB03B093CC034091C5035091C6033C
:100E60006091C7037091C803841B950BA60BB70B49
:100E70008F779927880F991F2FEF30E0A901481B22
:100E8000590B5093C4034093C3030E945103009134
:100E9000CE031091CF032091D0033091D103DC0118
:100EA000CB01801B910BA20BB30B8093D2039093C9
:100EB000D303A093D403B093D5030091C903109139
:100EC000CA032091CB033091CC03C090C503D090CE
:100ED000C603E090C703F090C8030C191D092E0942
:100EE0003F09003811052105310538F04696A11D4E
:100EF000B11DBC01660F771F0BC02091C303309159
:100F0000C403245D3F4FBC01660F771F620F731F40
:100F10007093C4036093C3038091C3039091C4038F
:100F20008F3F910508F08EEF8093B200FF91EF9113
:100F3000DF91CF91BF91AF919F918F917F916F91F1
:100F40005F914F913F912F911F910F91FF90EF90E3
:100F5000DF90CF900F900FBE0F901F901895CF93FA
:100F6000DF93EC0170E080E090E00E94481520E003
:100F700030E04CEB51E40E94A71526E636E648E344
:100F800051E40E94BF1620E030E040EA52E40E94A3
:100F9000A7150E94A4177B836A8328813981CB011E
:100FA000821B930B9E838D830097D9F09C0197FF42
:100FB00004C022273327281B390BB9010E94D817F8
:100FC0008F81811102C0862F02C0862F81958C836C
:100FD00061E018160CF460E0898DDF91CF910C94DC
:100FE000FD00DF91CF9108952F923F924F925F9233
:100FF0006F927F928F929F92AF92BF92CF92DF9229
:10100000EF92FF920F931F93CF93DF93CDB7DEB78D
:10101000C854D1090FB6F894DEBF0FBECDBF8C0106
:10102000DC0111961C921E9213961C921E9212972E
:10103000FF24F3941496FC92149716961C921E9219
:10104000159717961C9217971896FC9218971A9650
:101050001C921E9219978AE0E0E1F1E01B96019044
:101060000D928A95E1F7F801158A86E990E093A33D
:1010700082A388E090E00E940618D80196969C937F
:101080008E93959797961C92812C912C2CECA22EE6
:1010900022E4B22EFC0180829182A282B3824CE1D2
:1010A00057EC61E170E444835583668377831801CC
:1010B000B8E22B0E311C84EB93E0F80191A780A7D6
:1010C00012A614A613A615A616A680E090E0ACEB17
:1010D000B1E487A790ABA1ABB2AB10922B021092F8
:1010E0002A021092AC021092CE021092AA02F09242
:1010F000A9021092840261E082E10E94FD0061E099
:1011000083E10E94FD008091B9008E7F8093B90039
:101110008091B9008D7F8093B90088E48093B800F6
:1011200085E48093BC008EE591E090934D0280931E
:101130004C028FE591E090935102809350028CE035
:101140008093B80080E290E00E9406183C018D86F2
:101150009E86AF86B88A80E090E0ABE9B3E4898BE5
:101160009A8BAB8BBC8B80E090E8ACEFB3E48D8BBB
:101170009E8BAF8BB88F80E090E0A4EBB2E489A7A0
:101180009AA7ABA7BCA7198E1A8E1B8E1C8E19A20C
:101190001AA21BA21CA219861A861B861C868DA762
:1011A0009EA7AFA7B8AB80E090E0A0E8BEE38DA318
:1011B0009EA3AFA3B8A78AE995ECADE9BAEB8D8FF2
:1011C0009E8FAF8FB8A39E012F5D3F4F25963FAFF7
:1011D0002EAF2597AE01475D5F4F21965FAF4EAFB3
:1011E0002197CE0101969CAB8BABDE011D96BAAB6D
:1011F000A9ABFE01F1962396FFAFEEAF2397230133
:1012000022E030E03AAF29AFABA9BCA918968D9087
:101210009D90AD90BC901B972196EEADFFAD2197B0
:1012200052914291329122912196FFAFEEAF2197D8
:10123000C501B4010E94A7159B01AC012596AEAD76
:10124000BFAD25979E918E917E916E912596BFAFF1
:10125000AEAF25970E94BE166B017C01EBA9FCA9DD
:101260006483758386839783A9A9BAA914962D915F
:101270003D914D915C9117972BAF3CAF4DAF5EAF59
:101280002396AEADBFAD23975E914E913E912E91C8
:101290002396BFAFAEAF23972DAB3EAB4FAB58AF4E
:1012A0002BAD3CAD4DAD5EADE9A9FAA96085718568
:1012B000828593850E94BE162DA93EA94FA958ADDF
:1012C0000E942B1729966CAF7DAF8EAF9FAF2997E9
:1012D000A7019601C701B6010E94BF16A50194019E
:1012E0000E94BF162DA93EA94FA958AD0E94A7156F
:1012F00020E030E040E450E40E942B179B01AC0159
:1013000029966CAD7DAD8EAD9FAD29970E94BE161E
:101310002BAD3CAD4DAD5EADD20150962D933D93BE
:101320004D935C935397F201648B758B868B978BEF
:101330005896CD92DD92ED92FC925B97A7019601B3
:10134000C501B4010E94BE166B017C0120E030E0B3
:1013500040E450E46DA97EA98FA998AD0E94A7151D
:101360009B01AC01C701B6010E942B17F201648FEB
:10137000758F868F978F29AD3AAD215031093AAFDD
:1013800029AF4BA95CA9445051095CAB4BAB89A96F
:101390009AA904979AAB89AB90E1491A5108232B7B
:1013A00009F032CFD80196967C926E92959781E0A3
:1013B00097968C936114710419F0C3010E949E18D2
:1013C000F80116A681E08093AB021092CD02109234
:1013D000AC021092CE0266E0C1010E949B0481E043
:1013E0000E942B0BD8019E968C9383E290E001978C
:1013F000F1F7F80185A581110CC080E482A740EACD
:1014000060E0C1010E94450F4CE061E0C1010E9413
:10141000450FD8019D968C919D978111A0C09A96F9
:101420008C919A979E961C9291E09093AB02809338
:10143000CD021092AC021092CE0260E0C1010E9477
:101440009B0481E00E942B0BF80186A781116FC0DD
:1014500082A5D090AA02D110FCCF91E09093AA026D
:101460009093A9022FEF2093A8021092A702109246
:10147000A6029093850290918502880F892B809314
:10148000850280918402813061F4109284028091FF
:1014900085028093BB008091BC0083FDF8CF85EC72
:1014A00001C085EE8093BC008091AA028130E1F3F7
:1014B0008091A702811103C08091A70201C081E041
:1014C000A6E8B2E0EAE0F2E0E12CE81621F09D9116
:1014D0009193E394FACF10922B02E0922A02F12C1E
:1014E000F1E0EF16F104A9F021E0E21AF10868F04A
:1014F000D80198968D919C919997DC01ED91FC9182
:101500000284F385E02D0995EFCF84E0F80186A7EA
:101510000FC0D80198968D919C919997DC01ED911F
:10152000FC910284F385E02D0995D82E01C0D12CC1
:101530001D2D1F76412F406160E0C1010E94450FC3
:1015400049E76EEFC1010E94450F412F406860E0FE
:10155000C1010E94450F8BEC97E00197F1F7C85B42
:10156000DF4F0FB6F894DEBF0FBECDBFDF91CF9136
:101570001F910F91FF90EF90DF90CF90BF90AF90B1
:101580009F908F907F906F905F904F903F902F90A3
:1015900008958FEC92E00E94BE0021E0892B09F4AF
:1015A00020E0822F08951F920F920FB60F92112400
:1015B0002F933F934F935F936F937F938F939F935B
:1015C000AF93BF93EF93FF938FEC92E00E943602AC
:1015D000FF91EF91BF91AF919F918F917F916F910B
:1015E0005F914F913F912F910F900FBE0F901F90E1
:1015F00018951F920F920FB60F9211242F938F936D
:101600009F93EF93FF93E091DF02F091E0028081DE
:10161000E091E502F091E60282FD12C09081809196
:10162000E8028F5F8F732091E902821751F0E091F9
:10163000E802F0E0E153FD4F958F8093E80201C08E
:101640008081FF91EF919F918F912F910F900FBE0D
:101650000F901F901895282F3091CE02313208F04C
:101660004AC08091AA028111FCCF9091CD0242E044
:101670004093AA022093A9022FEF2093A802109270
:10168000A7023093A602EDEAF2E0A6E8B2E020E07D
:10169000321721F041914D932F5FFACF10928502BE
:1016A00020918502990F922B90938502909184024C
:1016B000913061F410928402909185029093BB0066
:1016C0009091BC0093FDF8CF95EC01C095EE9093FE
:1016D000BC009091AA029230E1F39091A8029F3F42
:1016E00079F08091A802803241F08091A802803385
:1016F00031F084E005C081E003C082E001C083E0F6
:101700001092AC021092CE021092AB020895AF92EA
:10171000BF92CF92DF92EF92FF920F931F93CF93DE
:10172000DF93C82FD0E07E01EE0CFF1CF701EA52D8
:10173000FC4F0190F081E02DC184D28487E08C9F22
:1017400080018D9F100D11240A521C4F580184EF07
:10175000A80EB11CF501808181110CC00E945103BB
:10176000F801E950FF4F608371838283938381E0A6
:10177000F50180830E94510327E02C9FA0012D9F3B
:10178000500D1124DA01AA52BC4FFD01E950FF4F60
:1017900020813181AB01421B530B3297518340832F
:1017A000C416D506B0F531971082F701EA52FC4F06
:1017B00000811181F80184A1813059F5E12CF12CCF
:1017C0005801F5E2AF0EB11C680188E2C80ED11CC9
:1017D000F801668D778D072E000C880B990B0E94FF
:1017E0004815AB01BC01C5010E94A703AC01B701BC
:1017F000C6010E94A504FFEFEF1AFF0A85E0E81674
:10180000F10431F782E0F80184A3CA52DC4F81E091
:101810008E87DF91CF911F910F91FF90EF90DF9016
:10182000CF90BF90AF9008953F924F925F926F928A
:101830007F928F929F92AF92BF92CF92DF92EF9260
:10184000FF920F931F93CF93DF93082F10E0F801BF
:10185000EE0FFF1FEA52FC4FC081D1819885915055
:101860009887288139814A815B812417350709F0DF
:1018700074C019160CF471C0F801EA52FC4F408490
:10188000000F111F06521C4FC90160E570E00E9455
:10189000D817072E000C880B990B0E94481520E0E2
:1018A00030E04CEB51E40E942B170E949D172B85D2
:1018B0003C85621B730B6E018BE0C80ED11C9E0130
:1018C0002B5E3F4FF60180819181860F971F819398
:1018D00091932E173F07B9F7F80180818C3321F4DB
:1018E000488681E08CA339C082E0582E3E01F5E2A3
:1018F0006F0E711C5E0188E2A80EB11C3324339474
:101900004601E12CF12CF401219131914F01F801B4
:10191000808190E028173907A1F468A179A1072EEA
:10192000000C880B990B0E944815AB01BC01C30148
:101930000E94A703AC01B701C5010E94A504488617
:101940003CA2FFEFEF1AFF0A85E0E816F104D9F692
:101950005A940F5F1F4F5110D3CFDF91CF911F913A
:101960000F91FF90EF90DF90CF90BF90AF909F903E
:101970008F907F906F905F904F903F90089561158A
:10198000710579F0FB0101900020E9F73197AF0173
:10199000461B570BDC01ED91FC910280F381E02D99
:1019A000099480E090E008958F929F92AF92BF9249
:1019B000EF92FF920F931F93CF93DF93CDB7DEB7D4
:1019C000A1970FB6F894DEBF0FBECDBF7C01FA0120
:1019D000CB0119A2223008F42AE08E010F5D1F4FBF
:1019E000822E912CA12CB12CBF01A50194010E9443
:1019F0006516F901CA01015011096A3014F4605DDD
:101A000001C0695CD8016C93232B242B252B61F733
:101A1000B801C7010E94BF0CA1960FB6F894DEBFB3
:101A20000FBECDBFDF91CF911F910F91FF90EF902F
:101A3000BF90AF909F908F900895EF92FF920F9379
:101A40001F93CF93DF938C018091C2038F5F8093AC
:101A5000C203E82EF12C2BE0829FC00111240E94CA
:101A60000618EC01FC01A70181E091E0E91AF108F8
:101A700020F490E0415051090DC011821082128271
:101A8000138214821582168217821086118682872D
:101A90003B96EBCF292F30E0E091C003F091C103DA
:101AA0002417350784F48BE0989F90011124DE0100
:101AB000A20FB31FE20FF31F8BE001900D928A95E6
:101AC000E1F79F5FE7CF309719F0CF010E949E1892
:101AD000D093C103C093C0038091C2039BE0899F50
:101AE000C00DD11D11242B971983088348E250E0C3
:101AF00060E070E04A835B836C837D834E835F8309
:101B00006887798791E09A870091C9031091CA0389
:101B10002091CB033091CC030150110921093109E7
:101B2000083211052105310558F04093C90350933F
:101B3000CA036093CB037093CC0381508093CD0391
:101B4000DF91CF911F910F91FF90EF9008956F92C9
:101B50007F928F929F92AF92BF92CF92DF92EF923D
:101B6000FF920F931F93CF93DF93CDB7DEB76897A4
:101B70000FB6F894DEBF0FBECDBFBC018BEE93E075
:101B80000E94760F1C8A1B8A1E8A1D8A188E1F8A45
:101B90006BEE73E0CE0143960E94760F87EFC82E5E
:101BA00083E0D82EEE24E394F12CA12CB12C27E075
:101BB000722E2F89388D2E153F0509F4DAC0C50124
:101BC00001968217930768F40B891C8960E270E024
:101BD000800F911F0E94FB19009719F0801B910B39
:101BE00002C08FEF9FEF7C019C01A501BE016D5EDD
:101BF0007F4FCE010D960E94A70F57018FEFA81AB5
:101C0000B80A09891A890115110561F08D849E842D
:101C10006DE270E0C4010E94FB19009719F0881969
:101C2000990902C08FEF9FEF4C0199249801A401FC
:101C3000BE01635F7F4FCE0101960E94A70F89818D
:101C40009A81009721F00E940515662E01C0612C33
:101C5000CE0101960E948D0F940140E050E0BE013C
:101C6000635F7F4FCE0107960E94A70F1A821982E9
:101C70001C821B821E821D82BE01695F7F4FCE01C6
:101C800001960E94760F60E070E0CE0101960E94FE
:101C9000640F60E070E0CE0101960E94640FFC01C9
:101CA000008160E070E0CE0101960E94640FFC01AB
:101CB0008081853429F011E0043419F010E001C06E
:101CC00012E060E070E0CE0101960E94640FFC011A
:101CD0008081863409F413E060E070E0CE01019663
:101CE0000E94640FFC018081873409F414E060E0F5
:101CF00070E0CE0101960E94640FFC018081813466
:101D000009F415E060E070E0CE0101960E94640FD6
:101D1000FC018081823409F416E061E070E0CE01BC
:101D200001960E94640FFC0100818D819E81892BA8
:101D300041F066E072E089819A810E94061A892B3F
:101D400031F000531550079D100D112401C01CE304
:101D5000CE0101960E948D0FF60111936F016082F2
:101D6000CE0107960E948D0FCE010D960E948D0F19
:101D700020CFCE0143960E948D0F68960FB6F8943F
:101D8000DEBF0FBECDBFDF91CF911F910F91FF90AE
:101D9000EF90DF90CF90BF90AF909F908F907F900B
:101DA0006F900895CF92DF92EF92FF920F931F935F
:101DB000CF93DF936C017A018B01C0E0D0E0CE15A8
:101DC000DF0581F0D8016D918D01D601ED91FC9177
:101DD0000190F081E02DC6010995892B11F0219623
:101DE000EECF7E01C701DF91CF911F910F91FF9040
:101DF000EF90DF90CF900895CF93DF93EC0188812F
:101E00009981009711F00E949E18198218821D82F4
:101E10001C821B821A82DF91CF910895EF92FF926C
:101E20000F931F93CF93DF93EC017B018A0188818D
:101E30009981009729F02A813B8124173507B0F456
:101E4000B8016F5F7F4F0E942719009759F099835F
:101E500088831B830A832C813D81232B39F4FC0169
:101E6000108204C0CE010E94FC0E07C01D830C83AB
:101E7000B701888199810E940F1ACE01DF91CF911D
:101E80001F910F91FF90EF9008951F93CF93DF93D1
:101E9000EC01142F8A811E8291E09093AB02809313
:101EA000CD021092AC021092CE02CE010E949B0491
:101EB000612FCE010E949B0481E00E942B0B8E8338
:101EC000DF91CF911F910895FC0124813581621724
:101ED000730720F480819181009729F41092DE0429
:101EE0008EED94E00895860F971F0895CF93DF93AA
:101EF000EC01FB018617970761F060817181611524
:101F0000710529F0448155810E940E0F02C00E9484
:101F1000FC0ECE01DF91CF910895FC01808191816B
:101F20000C949E18FC011182108213821282158279
:101F300014826115710551F0FB0101900020E9F751
:101F40003197AF01461B570B0C940E0F0895BF92AB
:101F5000CF92DF92EF92FF920F931F93CF93DF9375
:101F60007C016B01EA0189012417350720F48D2FCC
:101F7000E901042F182F6FE671E0C7010E94920F4C
:101F8000D60114968D919C911597C817D90740F5E5
:101F90008017910708F48C01D601ED91FC911197FF
:101FA000E00FF11FB08010826D917C916C0F7D1F4E
:101FB0006115710561F0FB0101900020E9F731978F
:101FC000AF01461B570BC7010E940E0F03C0C7018C
:101FD0000E94FC0ED601ED91FC91E00FF11FB08242
:101FE000C701DF91CF911F910F91FF90EF90DF908C
:101FF000CF90BF9008958BEE93E0892B41F081EF55
:1020000093E00E948D0F8BEE93E00E948D0F88ED80
:1020100094E00C948D0FCF93DF9300D000D000D0CC
:10202000CDB7DEB7789484B5826084BD84B5816015
:1020300084BD85B5826085BD85B5816085BD809193
:102040006E00816080936E0010928100809181000B
:102050008260809381008091810081608093810003
:10206000809180008160809380008091B1008460C5
:102070008093B1008091B00081608093B000809126
:102080007A00846080937A0080917A0082608093E5
:102090007A0080917A00816080937A0080917A0042
:1020A000806880937A001092C1001092B003109261
:1020B000B1031092B2031092B30310926E03109208
:1020C0006F0310927003109271030E9451036B0111
:1020D0007C014B015C0128EB820E2BE0921EA11CBF
:1020E000B11C0E9451036C157D058E059F0528F0DB
:1020F00086169706A806B906A0F78FEC92E0909393
:10210000AF038093AE03E091DF02F091E00282E042
:102110008083E091DB02F091DC021082E091DD022D
:10212000F091DE0280E180831092E702E091E30209
:10213000F091E40286E08083E091E102F091E20216
:10214000808180618083E091E102F091E2028081F0
:1021500088608083E091E102F091E20280818068F2
:102160008083E091E102F091E20280818F7D8083A3
:102170000E94510360936E0370936F03809370030A
:10218000909371036EE571E08091AE039091AF037F
:102190000E94BF0C0E9451036B017C014B015C014A
:1021A0008AE0880E911CA11CB11C0E9451036C1581
:1021B0007D058E059F0528F086169706A806B906A8
:1021C000A0F7BB24B394B092820383E390E00E9413
:1021D00006188C010E94F40710937F0200937E0280
:1021E00083E390E00E9406188C010E94F40710938C
:1021F0007D0200937C02E0907E02F0907F0280E1FD
:1022000090E0F7019487838781E190E09687858746
:1022100082E190E0908B878783E190E0928B818BC5
:1022200084E190E0948B838B85E091E0978B868BA3
:102230008EE1C82ED12CF801D486C3868FE190E0C0
:102240009687858780E290E0908B878781E290E097
:10225000928B818B82E290E0948B838B80E091E083
:10226000978B868B92E0A92EF701A08E85E0818F57
:1022700028E0922E928E89E0838F61E082E00E94B6
:10228000F00261E0F701818D0E94F00261E0F70148
:10229000828D0E94F00262E0F701838D0E94F002BD
:1022A00087E0F801808F818F928E8BE0838F61E0D1
:1022B00087E00E94F00261E0F801818D0E94F00247
:1022C00061E0F801828D0E94F00262E0F801838DE6
:1022D0000E94F002F701D78EC68EF801D78EC68E07
:1022E00081E490E09093C2048093C10486EE90E074
:1022F0009093C0048093BF041A8219821C821B82AF
:102300001E821D8268ED74E0CE0101960E94760F58
:10231000CE0101960E94A70DCE0101960E948D0F5D
:1023200080917E0290917F029093D7038093D60391
:1023300080917C0290917D029093D9038093D80381
:10234000F8941092B0001092B10010927000A09218
:10235000B1001092B200B09270001092C2031092BD
:10236000C4031092C3031092C5031092C6031092C7
:10237000C7031092C8031092C9031092CA031092A7
:10238000CB031092CC031092CD0389E192E00E941E
:102390001D0D8CEE91E00E941D0D20E0422F50E0BB
:1023A0008091C20390E00197481759070CF049C08B
:1023B000FBE02F9F8001112431E08091C203381788
:1023C000F0F58091C0039091C103DC01A00FB11F13
:1023D00012964D915D916D917C911597EBE03E9F2A
:1023E000800D911D1124FC01C280D380E480F58012
:1023F000C416D506E606F70600F5ED90FC90119799
:1024000016968D909D90AD90BC9019971A96CC9091
:102410001A970F2EFBE0DF2EF02D01900D92DA942B
:10242000E1F7FC01F182E082428353836483758388
:1024300086829782A086B186C2863F5FBECF2F5F1D
:10244000ADCF78944091C9035091CA036091CB03FA
:102450007091CC038091C5039091C603A091C703EE
:10246000B091C803481B590B6A0B7B0BDB01CA01F7
:1024700080959095A095B0958F779927880F991F93
:102480009093C4038093C3034038510561057105DF
:1024900018F01092B20002C08093B200E0907E0269
:1024A000F0907F028FEF9FEFF701918380839383FA
:1024B000828300917C0210917D028AE993E0F80109
:1024C000918380839383828360E0C7010E94AF077A
:1024D000F701838D0E94C702892BD1F78AE993E027
:1024E000F701918380839383828363E3C8010E9411
:1024F000AF07F801838D0E94C702892BD1F78FEFB8
:102500009FEFF801918380839383828384EFC82EA9
:10251000DD24D394E12CF12C0E945103672B682B0E
:10252000692B41F40E9451036230710581059105C8
:1025300008F40FC10E9451030091800210918102A2
:1025400020918202309183026017710782079307FE
:1025500040F4609380027093810280938202909392
:1025600083020091800210918102209182023091B9
:1025700083024B015C01801A910AA20AB30A9501F9
:1025800084010A3F11052105310508F4E2C060937A
:102590008002709381028093820290938302C092A2
:1025A0007A03D0927B03E0927C03F0927D03109239
:1025B0007E0310927F03109280031092810380911A
:1025C000720390917303A0917403B091750380938B
:1025D000760390937703A0937803B09379030E94D6
:1025E0005103609372037093730380937403909309
:1025F00075030E94510360936E0370936F03809381
:102600007003909371030E9451034B015C0160E7DA
:1026100071E08091AE039091AF030E94BF0C2AE05D
:1026200041E050E060E070E08091AE039091AF0334
:102630000E94D40C67E771E08091AE039091AF03E4
:102640000E94BF0C2AE0B501A4018091AE039091D5
:10265000AF030E94D40C69E771E08091AE039091C2
:10266000AF030E94BF0C8091720390917303A091FD
:102670007403B0917503B501A401481B590B6A0B93
:102680007B0B2AE08091AE039091AF030E94D40CA3
:1026900069E771E08091AE039091AF030E94BF0C97
:1026A00040917203509173036091740370917503AC
:1026B0008091760390917703A0917803B09179038C
:1026C000481B590B6A0B7B0B2AE08091AE0390915B
:1026D000AF030E94D40C6BE771E08091AE03909140
:1026E000AF030E94BF0C0E945103AB01BC012AE062
:1026F0008091AE039091AF030E94D40C0091AE0381
:102700001091AF036DE771E0C8010E94BF0C6DE648
:1027100071E0C8010E94BF0C0E9451034B015C0193
:102720002B013C0125E0420E511C611C711C0E94D2
:102730005103681579058A059B0508F042C00E947F
:1027400051036093720370937303809374039093A7
:102750007503E091D603F091D70320813181828106
:1027600093812817390751F5A091D803B091D90367
:102770002D913C91119712968D919C91139728174A
:102780003907E1F46091E2038385681709F1CF010D
:102790000E94AF071092E6038091D8039091D9036D
:1027A0006091E303FC0123856217B1F00E94AF073B
:1027B0001092E6038091E603811112C00E94CA00C4
:1027C000ABCE461657066806790608F0B0CFB7CFED
:1027D00081E08093E603E0CF81E08093E603EACFD7
:1027E00080E00E94870B81E00E94870B8091E403C8
:1027F000811105C08091E503882309F44DC00E9432
:102800002C034B015C0194E6492E512C612C712C58
:102810000E942C03DC01CB0188199909AA09BB0984
:10282000883E9340A105B10598F3F1E04F1A510895
:102830006108710828EE820E23E0921EA11CB11CD3
:10284000411451046104710419F78091E403882351
:1028500069F06091E0038091D6039091D7030E94C4
:10286000AF078091E7038F5F8093E7038091E503D3
:10287000882369F06091E1038091D8039091D90396
:102880000E94AF078091E8038F5F8093E803109266
:10289000E4031092E50392CF0091BF041091C004AD
:1028A0008091C30481110DC00E9451036093C6043E
:1028B0007093C7048093C8049093C90481E0809307
:1028C000C3040E9451032091C6043091C704621BC7
:1028D000730B7093C5046093C4040617170708F0C0
:1028E0006DCF1092C30480E00E94140C81E00E941E
:1028F000140C64CFEFECF2E01382128288EE93E0C6
:10290000A0E0B0E084839583A683B7832EE331E013
:102910003183208325EC30E03587248724EC30E0B8
:102920003787268720EC30E0318B208B21EC30E09C
:10293000338B228B22EC30E0358B248B26EC30E07D
:10294000378B268B118E128E138E148EECE6F3E0ED
:1029500016821782108611861286138614861586B3
:1029600016861786108A118A128A138A148A158A83
:10297000E4EBF3E01382128284839583A683B7830A
:1029800080E591E091838083E0ECF3E01282148291
:10299000138215821682178210861186128613867C
:1029A0001486158616861786108A118A128A138A4B
:1029B000148A158A64E871E088ED94E00E94920F11
:1029C000E6EDF3E01686178681E0808B6FE671E016
:1029D0008BEE93E00E94920F6FE671E081EF93E03F
:1029E0000E94920F84EF91E09093C0048093BF0403
:1029F00088E790E09093C2048093C1041092CA04C7
:102A00001092D1041092C30408951F93FC019927DA
:102A10008827BC01E89411911032E9F3193010F0C5
:102A20001E30C8F31B3251F01D3249F4689406C0C1
:102A30000E942C15610F711D811D911D1191105364
:102A40001A30B0F33EF490958095709561957F4F64
:102A50008F4F9F4F1F910895592F482F372F262FA3
:102A6000660F771F881F991F660F771F881F991F92
:102A7000620F731F841F951F660F771F881F991F92
:102A800008950E94831508F481E00895E89409C030
:102A900097FB3EF490958095709561957F4F8F4F91
:102AA0009F4F9923A9F0F92F96E9BB279395F695A7
:102AB000879577956795B795F111F8CFFAF4BB0F25
:102AC00011F460FF1BC06F5F7F4F8F4F9F4F16C089
:102AD000882311F096E911C0772321F09EE8872F13
:102AE000762F05C0662371F096E8862F70E060E0CF
:102AF0002AF09A95660F771F881FDAF7880F969548
:102B0000879597F90895990F0008550FAA0BE0E8EB
:102B1000FEEF16161706E807F907C0F0121613069F
:102B2000E407F50798F0621B730B840B950B39F4DF
:102B30000A2661F0232B242B252B21F408950A2645
:102B400009F4A140A6958FEF811D811D08950E9473
:102B5000BA150C942B160E941D1638F00E942416EC
:102B600020F0952311F00C9414160C941A161124CD
:102B70000C945F160E943C1670F3959FC1F3950F5D
:102B800050E0551F629FF001729FBB27F00DB11DF1
:102B9000639FAA27F00DB11DAA1F649F6627B00D81
:102BA000A11D661F829F2227B00DA11D621F739F6A
:102BB000B00DA11D621F839FA00D611D221F749F78
:102BC0003327A00D611D231F849F600D211D822FBF
:102BD000762F6A2F11249F5750409AF0F1F08823E6
:102BE0004AF0EE0FFF1FBB1F661F771F881F915013
:102BF0005040A9F79E3F510580F00C9414160C9498
:102C00005F165F3FE4F3983ED4F38695779567951A
:102C1000B795F795E7959F5FC1F7FE2B880F911D3C
:102C20009695879597F9089597F99F6780E870E0E2
:102C300060E008959FEF80EC089500240A94161632
:102C4000170618060906089500240A94121613069A
:102C5000140605060895092E0394000C11F4882328
:102C600052F0BB0F40F4BF2B11F460FF04C06F5F44
:102C70007F4F8F4F9F4F089557FD9058440F551F1A
:102C800059F05F3F71F04795880F97FB991F61F0EE
:102C90009F3F79F087950895121613061406551F65
:102CA000F2CF4695F1DF08C0161617061806991FD1
:102CB000F1CF86957105610508940895E894BB27C6
:102CC00066277727CB0197F90895A1E21A2EAA1B50
:102CD000BB1BFD010DC0AA1FBB1FEE1FFF1FA217CC
:102CE000B307E407F50720F0A21BB30BE40BF50BC9
:102CF000661F771F881F991F1A9469F76095709552
:102D0000809590959B01AC01BD01CF0108952F9254
:102D10003F924F925F926F927F928F929F92AF926B
:102D2000BF92CF92DF92EF92FF920F931F93CF93B8
:102D3000DF93CDB7DEB7CA1BDB0B0FB6F894DEBF4F
:102D40000FBECDBF09942A88398848885F846E8475
:102D50007D848C849B84AA84B984C884DF80EE80BF
:102D6000FD800C811B81AA81B981CE0FD11D0FB6C8
:102D7000F894DEBF0FBECDBFED0108955058BB27BC
:102D8000AA270E94D6160C942B160E941D1638F006
:102D90000E94241620F039F49F3F19F426F40C9475
:102DA0001A160EF4E095E7FB0C941416E92F0E9416
:102DB0003C1658F3BA17620773078407950720F08B
:102DC00079F4A6F50C945E160EF4E0950B2EBA2F4E
:102DD000A02D0B01B90190010C01CA01A001112421
:102DE000FF27591B99F0593F50F4503E68F11A16CD
:102DF000F040A22F232F342F4427585FF3CF46955E
:102E000037952795A795F0405395C9F77EF41F167F
:102E1000BA0B620B730B840BBAF09150A1F0FF0F49
:102E2000BB1F661F771F881FC2F70EC0BA0F621F35
:102E3000731F841F48F4879577956795B795F79525
:102E40009E3F08F0B0CF9395880F08F09927EE0FBA
:102E50009795879508950E943F170C942B160E9412
:102E6000241658F00E941D1640F029F45F3F29F007
:102E70000C94141651110C945F160C941A160E949F
:102E80003C1668F39923B1F3552391F3951B550B29
:102E9000BB27AA2762177307840738F09F5F5F4F2D
:102EA000220F331F441FAA1FA9F335D00E2E3AF06C
:102EB000E0E832D091505040E695001CCAF72BD084
:102EC000FE2F29D0660F771F881FBB1F26173707D5
:102ED0004807AB07B0E809F0BB0B802DBF01FF2707
:102EE00093585F4F3AF09E3F510578F00C941416BA
:102EF0000C945F165F3FE4F3983ED4F38695779584
:102F00006795B795F7959F5FC9F7880F911D9695BF
:102F1000879597F90895E1E0660F771F881FBB1F1B
:102F2000621773078407BA0720F0621B730B840BC8
:102F3000BA0BEE1F88F7E09508950E94A4176894D5
:102F4000B1110C945F1608950E94441688F09F57A3
:102F500098F0B92F9927B751B0F0E1F0660F771FBD
:102F6000881F991F1AF0BA95C9F714C0B13091F0B3
:102F70000E945E16B1E008950C945E16672F782FBC
:102F80008827B85F39F0B93FCCF386957795679578
:102F9000B395D9F73EF490958095709561957F4FE4
:102FA0008F4F9F4F08950E94831508F48FEF089567
:102FB00097FB072E16F4009407D077FD09D00E94E6
:102FC000EC1707FC05D03EF4909581959F4F08952E
:102FD000709561957F4F0895AA1BBB1B51E107C0F7
:102FE000AA1FBB1FA617B70710F0A61BB70B881F99
:102FF000991F5A95A9F780959095BC01CD01089528
:10300000EE0FFF1F0590F491E02D09940F931F938D
:10301000CF93DF938230910510F482E090E0E0914D
:10302000E104F091E20420E030E0A0E0B0E030976D
:1030300019F1408151810281138148175907C8F065
:103040008417950769F4109731F012960C93129734
:1030500013961C9327C00093E1041093E20422C04E
:103060002115310519F04217530718F49A01BD01D3
:10307000EF01DF01F801DBCF21153105F9F0281B45
:10308000390B2430310580F48A819B8161157105EB
:1030900021F0FB019383828304C09093E204809328
:1030A000E104FE01329644C0FE01E20FF31F81935A
:1030B000919322503109398328833AC02091DF044B
:1030C0003091E004232B41F420910C0130910D014B
:1030D0003093E0042093DF0420910A0130910B012A
:1030E0002115310541F42DB73EB740910E015091A5
:1030F0000F01241B350BE091DF04F091E004E2178F
:10310000F307A0F42E1B3F0B2817390778F0AC010A
:103110004E5F5F4F2417350748F04E0F5F1F5093E7
:10312000E0044093DF048193919302C0E0E0F0E07B
:10313000CF01DF91CF911F910F910895CF93DF932E
:10314000009709F481C0FC01329713821282A0918A
:10315000E104B091E204109781F420813181820F63
:10316000931F2091DF043091E0042817390751F5AF
:10317000F093E004E093DF0467C0ED0120E030E06D
:10318000CE17DF0740F44A815B819E01411551054E
:10319000F1F0EA01F5CFD383C28340815181840FDE
:1031A000951FC817D90759F488819981840F951FF5
:1031B0000296918380838A819B81938382832115E8
:1031C000310529F4F093E204E093E1043DC0E90104
:1031D000FB83EA8349915991C40FD51FEC17FD0772
:1031E00061F480819181840F951F0296E901998392
:1031F0008883828193819B838A83E0E0F0E012964A
:103200008D919C911397009719F0FD01DC01F7CF88
:103210008D919C9111979D012E5F3F4F820F931FBF
:103220002091DF043091E0042817390769F43097C2
:1032300029F41092E2041092E10402C01382128277
:10324000B093E004A093DF04DF91CF910895A0E054
:10325000B0E0EDE2F9E10C948B16EC01009721F45B
:10326000CB010E940618B4C0FC01E60FF71F9C01B9
:1032700022503109E217F30708F4A8C0D9010D91D3
:103280001C91119706171707B0F00530110508F4C7
:103290009BC0C80104978617970708F495C0025091
:1032A0001109061B170B019311936D937C93CF01AA
:1032B0000E949E1889C05B01A01AB10A4C01800EC1
:1032C000911EA091E104B091E204612C712CE12CDB
:1032D000F12C109709F446C08D919C911197A81577
:1032E000B905B1F56C0142E0C40ED11CCA14DB046F
:1032F00078F14C018A189B08640142E0C40ED11C8D
:103300001296BC9012971396AC91B5E0CB16D104EF
:1033100040F0B282A38391828082D9016D937C9325
:1033200009C00E5F1F4F800F911FF90191838083A9
:10333000EB2DFA2FE114F10431F0D7011396FC9331
:10334000EE93129741C0F093E204E093E1043CC095
:103350006816790608F43C017D0112960D90BC9127
:10336000A02DB7CF8091DF049091E00488169906D4
:10337000E1F466167706C8F480910A0190910B017A
:10338000009741F48DB79EB740910E0150910F0107
:10339000841B950BE817F907C8F4F093E004E09359
:1033A000DF04F901718360830FC0CB010E9406180E
:1033B0007C01009759F0A801BE010E94F219CE01CC
:1033C0000E949E18C70104C0CE0102C080E090E0B8
:1033D000CDB7DEB7EEE00C94A71681E090E0F8944C
:1033E0000C94161AFB01DC0102C001900D924150B1
:1033F0005040D8F70895FC018191861721F0882369
:10340000D9F7992708953197CF010895FB01DC0181
:103410008D91019080190110D9F3990B0895FB014A
:10342000DC0101900D920020E1F7089510E0C2E662
:10343000D0E004C0FE010E9400182196C336D107D7
:06344000C9F7F894FFCF6C
:10344600050607080900010203040000E3048000E2
:103456001E001F00200021002200000000080004BA
:10346600000C0002000E0006000A0001000F000515
:103476000009000D0003000B0007000000005802C1
:10348600D20E8D00A502BE009C00B0000000000018
:10349600B9018C01E9016001840170016101564D99
:1034A6004450565F317C315F564D4450560D0A00EC
:1034B600564D4450455F003A323A007C005F564D07
:1034C6004450450047342D312043352044352044AF
:1034D600352D322045352045352D382043352D31C3
:1034E6002044352045352044352D322047352047A8
:1034F600352D392052452D312043352D3120443587
:103506002045352044352D322047352047352D3886
:103516002052452D312047352D3120413520423569
:103526002042352D322043362043362D3620443670
:103536002D322045362044362043362042352D385C
:0A3546002052452D310052450000CF
:107E0000112484B714BE81FFF0D085E080938100F7
:107E100082E08093C00088E18093C10086E0809377
:107E2000C20080E18093C4008EE0C9D0259A86E02C
:107E300020E33CEF91E0309385002093840096BBD3
:107E4000B09BFECF1D9AA8958150A9F7CC24DD24C4
:107E500088248394B5E0AB2EA1E19A2EF3E0BF2EE7
:107E6000A2D0813461F49FD0082FAFD0023811F036
:107E7000013811F484E001C083E08DD089C08234E0
:107E800011F484E103C0853419F485E0A6D080C0E4
:107E9000853579F488D0E82EFF2485D0082F10E0AE
:107EA000102F00270E291F29000F111F8ED06801E7
:107EB0006FC0863521F484E090D080E0DECF843638
:107EC00009F040C070D06FD0082F6DD080E0C81688
:107ED00080E7D80618F4F601B7BEE895C0E0D1E017
:107EE00062D089930C17E1F7F0E0CF16F0E7DF06D8
:107EF00018F0F601B7BEE89568D007B600FCFDCFD4
:107F0000A601A0E0B1E02C9130E011968C91119780
:107F100090E0982F8827822B932B1296FA010C0160
:107F200087BEE89511244E5F5F4FF1E0A038BF0790
:107F300051F7F601A7BEE89507B600FCFDCF97BE46
:107F4000E89526C08437B1F42ED02DD0F82E2BD052
:107F50003CD0F601EF2C8F010F5F1F4F84911BD097
:107F6000EA94F801C1F70894C11CD11CFA94CF0C13
:107F7000D11C0EC0853739F428D08EE10CD085E9AC
:107F80000AD08FE07ACF813511F488E018D01DD067
:107F900080E101D065CF982F8091C00085FFFCCF94
:107FA0009093C60008958091C00087FFFCCF809118
:107FB000C00084FD01C0A8958091C6000895E0E648
:107FC000F0E098E1908380830895EDDF803219F02E
:107FD00088E0F5DFFFCF84E1DECF1F93182FE3DFCA
:107FE0001150E9F7F2DF1F91089580E0E8DFEE27F6
:047FF000FF270994CA
:027FFE00040479
:0400000300007E007B
:00000001FF