:100000000C9463000C948B000C948B000C948B006C
:100010000C948B000C948B000C948B000C948B0034
:100020000C948B000C94A9050C948B000C948B0001
:100030000C948B000C948B000C948B000C948B0014
:100040000C94C9020C948B000C94420B0C941C0B66
:100050000C948B000C948B000C948B000C948B00F4
:100060000C947B040C948B000000000024002700FB
:100070002A0000000000250028002B0000000000DE
:1000800023002600290004040404040404040202DA
:100090000202020203030303030301020408102007
:1000A0004080010204081020010204081020000012
:1000B0000008000201000003040700000000000027
:1000C00000007B11A10E11241FBECFEFD8E0DEBFD0
:1000D000CDBF24E0A0EFB1E001C01D92AA37B20766
:1000E000E1F711E0A0E0B1E0E4EBFDE202C0059031
:1000F0000D92A03FB107D9F710E0C2E6D0E004C0EE
:100100002197FE010E94CB14C136D107C9F70E9486
:10011000B70E0C94CD160C940000FC01918D228D2D
:10012000892F90E0805C9F4F821B91098F739927E4
:10013000089580E090E0892B29F00E94A30A8111A4
:100140000C9400000895833081F028F4813099F0F8
:100150008230A1F008958730A9F08830B9F084305A
:10016000D1F4809180008F7D03C0809180008F77D3
:1001700080938000089584B58F7702C084B58F7D09
:1001800084BD08958091B0008F7703C08091B00046
:100190008F7D8093B000089585ED8093BC008091A1
:1001A000BC0084FDFCCF10928C0208954091340273
:1001B000262F30E0240F311D21323105DCF420914F
:1001C0008C022430C9F4FC0180E090E0861758F4DA
:1001D000309134022191DC01AE5EBD4FA30FB11D01
:1001E0002C930196F3CF80913402680F6093340210
:1001F00080E0089581E0089582E0089508950895CB
:100200000895E091110280911002E81730F4F0E0B7
:10021000E051FE4F808190E008958FEF9FEF0895A9
:100220009091110280911002981750F4E92FF0E09C
:10023000E051FE4F208130E09F5F9093110202C099
:100240002FEF3FEFC90108958091100290E02091B7
:100250001102821B91090895CF92DF92EF92FF92D3
:100260000F931F93CF93DF937C01CB018A012091E1
:100270008D02222389F0EB016B01C40ED51ECC1533
:10028000DD0569F06991D701ED91FC910190F08154
:10029000E02DC7010995F3CF642F0E94D600C80155
:1002A000DF91CF911F910F91FF90EF90DF90CF9052
:1002B0000895CF93DF931F92CDB7DEB76983209166
:1002C0008D022223D1F02091B002203240F021E0B3
:1002D00030E0FC013383228380E090E015C0809100
:1002E0008E02E82FF0E0E157FD4F998190838F5FF8
:1002F00080938E028093B00205C061E0CE0101962A
:100300000E94D60081E090E00F90DF91CF91089598
:10031000089580E090E00895E0916202F091630218
:10032000408151816281738184819581A681B781E9
:10033000481759076A077B07C1F080E189B9E09146
:100340006202F09163028085082E000C990BAA0BC3
:10035000BB0B4081518162817381840F951FA61F61
:10036000B71F80839183A283B3830895E0916402D1
:10037000F091650240815181628173818481958110
:10038000A681B781481759076A077B07C1F084E047
:1003900089B9E0916402F09165028085082E000C15
:1003A000990BAA0BBB0B4081518162817381840F31
:1003B000951FA61FB71F80839183A283B3830895DF
:1003C0000E94B816FC01848DDF01A80FB11DA35A4D
:1003D000BF4F2C91848D90E001968F739927848F65
:1003E000A689B7892C93A089B1898C918370806488
:1003F0008C93938D848D981306C00288F389E02D29
:1004000080818F7D80830895CF93DF93282F30E004
:10041000F901E255FF4F8491F901E656FF4FD4915F
:10042000F901EA57FF4FC491CC2391F081110E944A
:10043000A300EC2FF0E0EE0FFF1FE458FF4FA59153
:10044000B491EC91ED2381E090E021F480E002C0D2
:1004500080E090E0DF91CF9108951F93CF93DF93D9
:10046000282F30E0F901E255FF4F8491F901E6565B
:10047000FF4FD491F901EA57FF4FC491CC23C1F04B
:10048000162F81110E94A300EC2FF0E0EE0FFF1F4A
:10049000EE58FF4FA591B4919FB7F894111104C085
:1004A0008C91D095D82302C0EC91DE2BDC939FBFBA
:1004B000DF91CF911F910895CF93DF9390E0FC01DE
:1004C000E656FF4F2491FC01EA57FF4F84918823A1
:1004D00061F190E0880F991FFC01E859FF4FC59129
:1004E000D491FC01EE58FF4FA591B491611109C060
:1004F0009FB7F8948881209582238883EC912E23DE
:100500000BC0623061F49FB7F8948881322F309528
:1005100083238883EC912E2B2C939FBF06C08FB72B
:10052000F894E8812E2B28838FBFDF91CF91089517
:100530003FB7F89480915E0290915F02A0916002B3
:10054000B091610226B5A89B05C02F3F19F0019616
:10055000A11DB11D3FBFBA2FA92F982F8827820F49
:10056000911DA11DB11DBC01CD0142E0660F771F99
:10057000881F991F4A95D1F708952FB7F894609175
:100580005A0270915B0280915C0290915D022FBFD4
:1005900008951F920F920FB60F9211242F933F933D
:1005A0008F939F93AF93BF9380915A0290915B0278
:1005B000A0915C02B0915D023091590223E0230FBB
:1005C0002D3720F40196A11DB11D05C026E8230F8B
:1005D0000296A11DB11D2093590280935A02909357
:1005E0005B02A0935C02B0935D0280915E029091E9
:1005F0005F02A0916002B09161020196A11DB11D40
:1006000080935E0290935F02A0936002B0936102B8
:10061000BF91AF919F918F913F912F910F900FBEFE
:100620000F901F9018958F929F92AF92BF92CF928A
:10063000DF92EF92FF92CF93DF93EC01CB01BA01EF
:1006400020E030E044EB52E40E9471136B017C0126
:1006500020E030E0A9010E94151287FD11C020E0C2
:1006600030E044E353E4C701B6010E948514181634
:1006700054F4C12CD12C84E3E82E83E4F82E03C07B
:10068000C12CD12C76018A810990D881C02D81118D
:100690000DC02C813D814E815F81C701B6010E9452
:1006A0007B12288139814A815B8173C020E030E070
:1006B00044EB52E4C701B6010E94151218164CF122
:1006C0002C813D814E815F81C701B6010E947B1262
:1006D000288139814A815B810E9471134B015C0141
:1006E000288539854A855B85C701B6010E947B1242
:1006F000A70196010E947B129B01AC01C501B401C8
:100700000E9471134B015C012C853D854E855F85F0
:1007100030C020E030E044EB52E4C701B6010E9453
:1007200070136B017C012C893D894E895F890E9481
:100730007B12288939894A895B890E9471134B0190
:100740005C01288D398D4A8D5B8DC701B6010E94F1
:100750007B12A70196010E947B129B01AC01C5018F
:10076000B4010E9471134B015C012C8D3D8D4E8DA7
:100770005F8DC701B6010E947B12A70196010E94FE
:100780007B12A70196010E947B129B01AC01C5015F
:10079000B4010E9471136B017C0120E030E0A901DB
:1007A0000E94851420E030E040E05FE387FD13C045
:1007B000C701B6010E9471130E944F1477FD1AC041
:1007C00020E030E040E05FE3C701B6010E94711312
:1007D0000E944F1408C0C701B6010E9470130E9406
:1007E0004F1477FD07C0CB016130704128F080E0E5
:1007F00090E102C080E090E0DF91CF91FF90EF9018
:10080000DF90CF90BF90AF909F908F900895DC01C4
:100810008D919C91DC01ED91FC910190F081E02D96
:100820000994EF92FF920F931F93CF93DF938C0164
:10083000EB017A016F3F8FEF780721F0660F660FAB
:100840006A5F01C06AEFF8018281168291E090939D
:100850008D028093AF0210928E021092B002C801F6
:100860000E940704D7FD12C0F8018381948100978C
:1008700019F4DC2FCC270CC0019741F4CC0FDD1FFD
:10088000C65EDE4F0990D881C02D02C0C0E0D0E026
:10089000E114F10489F0E114F0E1FF0620F0D061E9
:1008A000E12CF12C0CC0EC0EFD1EE11480E1F806E9
:1008B00030F0E0E1FE1A03C0E12C80E1F82E6C2F4D
:1008C000C8010E9407046D2FC8010E9407046E2D05
:1008D000C8010E9407046F2DC8010E94070481E02F
:1008E0000E94DE0BF8018683DF91CF911F910F915B
:1008F000FF90EF9008951F920F920FB60F92112460
:100900002F933F934F935F936F937F938F939F9317
:10091000AF93BF93EF93FF938091B900887F8036A8
:1009200009F49CC068F5883209F45BC090F480310A
:1009300009F454C038F4882309F4F6C0883009F467
:100940004DC0F6C0883109F44CC0803209F45DC056
:10095000EFC0803409F468C048F4803309F455C00E
:10096000883309F0E5C080938A02D8C0803509F445
:100970004FC0883509F45DC0883409F0D9C0D6C0AD
:10098000883909F4C7C0A8F4883709F467C038F477
:10099000883609F463C0803709F460C0C9C088385C
:1009A00009F4B8C0803909F45FC0803809F0C0C0CC
:1009B0005BC0803B09F486C038F4803A09F466C015
:1009C000883A09F47FC0B4C0803C09F4A7C0883CD1
:1009D00009F4A4C0883B09F48AC0AAC080916702C8
:1009E00010C09091890280918802981770F5E0916B
:1009F000890281E08E0F80938902F0E0E859FD4F73
:100A000080818093BB0085EC86C080938A028EC073
:100A1000E091890281E08E0F809389028091BB0072
:100A2000F0E0E859FD4F808390918902809188021F
:100A30006EC0E091890281E08E0F809389028091DF
:100A4000BB00F0E0E859FD4F808380918B0281115B
:100A50006DC081E08093660284EA61C083E0809388
:100A60008C0210925802CFCF80915802803208F049
:100A700051C0E091580281E08E0F8093580280911E
:100A8000BB00F0E0E85CFD4F8083BDCF85EC809338
:100A9000BC0010928C0280915802803230F4E091B8
:100AA0005802F0E0E85CFD4F10826091580270E05F
:100AB000E0913602F091370288E392E009951092B6
:100AC000580236C084E080938C0210923502109256
:100AD0003402E0913202F0913302099580913402A0
:100AE000811105C081E08093340210921202E091DE
:100AF000350281E08E0F80933502F0E0EE5EFD4F0F
:100B000080818093BB0090913502809134029817C8
:100B100008F479CF85E88093BC000AC085EC809307
:100B2000BC0010928C0204C010928A020E94CC0079
:100B3000FF91EF91BF91AF919F918F917F916F91B5
:100B40005F914F913F912F910F900FBE0F901F908B
:100B500018951F920F920FB60F921124CF92DF9229
:100B6000EF92FF920F931F932F933F934F935F93B7
:100B70006F937F938F939F93AF93BF93CF93DF93A5
:100B8000EF93FF930E94BD02609368037093690323
:100B900080936A0390936B0380915F03909160034D
:100BA000A0916103B091620380589F4FAF4FBF4F38
:100BB00080935F0390936003A0936103B0936203FB
:100BC00040916303509164036091650370916603E3
:100BD00084179507A607B707D0F4481B590B6A0B73
:100BE0007B0B9A012F773327220F331F8FEF90E073
:100BF000821B930B90935E0380935D0340385105F5
:100C00006105710510F082E0FBC08E5FF9C01092A3
:100C10005F0310926003109261031092620310E070
:100C200030915C0380915A0390915B03131708F095
:100C300046C02BE0129FE0011124FC01EC0FFD1FC8
:100C400022852223D1F146815781608571852091CB
:100C50006703DC013BE0239FA00DB11D1124169614
:100C60008D919D910D90BC91A02D481759076A0751
:100C70007B0799F40190F081E02D099580915A034A
:100C800090915B03C80FD91F8A819B81AC81BD8184
:100C90008E839F83A887B98710C08091630390914A
:100CA0006403A0916503B0916603481B590B6A0B5E
:100CB0007B0B46835783608771871F5FB1CF10928C
:100CC0006703FC0121E02317F8F445894423C9F0A8
:100CD00040916703DC015BE0459FA00DB11D11242D
:100CE000C188D288E388F48816964D915D916D9104
:100CF0007C911997C416D506E606F70610F42093E2
:100D000067032F5F3B96DFCF20916703FC013BE039
:100D1000239FE00DF11D112486819781A085B18567
:100D20008093630390936403A0936503B093660379
:100D300040915F0350916003609161037091620381
:100D4000841B950BA60BB70B8F779927880F991FDC
:100D50002FEF30E0A901481B590B50935E034093DD
:100D60005D030E94BD020091680310916903209108
:100D70006A0330916B03DC01CB01801B910BA20B4A
:100D8000B30B80936C0390936D03A0936E03B093A9
:100D90006F03009163031091640320916503309108
:100DA0006603C0905F03D0906003E0906103F09011
:100DB00062030C191D092E093F0900381105210590
:100DC000310538F04696A11DB11DBC01660F771F95
:100DD0000BC020915D0330915E03245D3F4FBC0149
:100DE000660F771F620F731F70935E0360935D033E
:100DF00080915D0390915E038F3F910508F08EEF27
:100E00008093B200FF91EF91DF91CF91BF91AF91AD
:100E10009F918F917F916F915F914F913F912F9112
:100E20001F910F91FF90EF90DF90CF900F900FBE2A
:100E30000F901F901895CF93DF93EC016881798113
:100E40008A819B8120EA30E040E050E00E948A14D1
:100E5000CA01B9010E941C1220E030E04CEB51E4C1
:100E60000E94DD130E944F1429893A89621B730B7B
:100E7000FE0171966B9680819181860F971F8193F9
:100E80009193EC17FD07B9F7DF91CF9108950F9378
:100E90001F93CF93DF93EC0170E080E090E00E941D
:100EA0001C1220E030E04CEB51E40E947B1220E069
:100EB00030E0A9010E94711320E030E040E253E4E9
:100EC0000E947B120E944F146C837D838E839F83CC
:100ED000088119812A813B81601B710B820B930B66
:100EE00069877A878B879C876115710581059105D4
:100EF000E1F09B01AC0197FF07C022273327A9012E
:100F0000261B370B480B590B0E948A148D858111C3
:100F10002195288761E012160CF460E08F8DDF9137
:100F2000CF911F910F910C942D02DF91CF911F91C2
:100F30000F9108952F923F924F925F926F927F92FE
:100F40008F929F92AF92BF92CF92DF92EF92FF92D9
:100F50000F931F93CF93DF93CDB7DEB7C854D1095A
:100F60000FB6F894DEBF0FBECDBF8C01DC011D9221
:100F70001D921D921C921397FC01148215821682F9
:100F80001782FF24F394F08619961D921D921D92EC
:100F90001C921C971D961C921D971E96FC921E97E4
:100FA00050961C921E921F978AE0E0E1F1E0519664
:100FB00001900D928A95E1F7F801138E86E990E091
:100FC00091A780A788E090E00E94D114D8019C9658
:100FD0009C938E939B979D961C92812C912C2CEC2C
:100FE000A22E22E4B22EFC0180829182A282B382E0
:100FF0004CE157EC61E170E4448355836683778369
:101000001801BEE22B0E311C8EE493E0F80197A785
:1010100086A710AA12AA11AA13AA14AA80E090E027
:10102000ACEBB1E485AB96ABA7ABB0AF10921102BD
:101030001092100210928E021092B00210928C0246
:10104000F0928B021092660261E082E10E942D0212
:1010500061E083E10E942D028091B9008E7F809330
:10106000B9008091B9008D7F8093B90088E48093A6
:10107000B80085E48093BC008EEF90E0909333023B
:10108000809332028FEF90E0909337028093360284
:101090008CE08093B80080E290E00E94D1143C0183
:1010A0008D869E86AF86B88A80E090E0ABE9B3E497
:1010B000898B9A8BAB8BBC8B80E090E8ACEFB3E470
:1010C0008D8B9E8BAF8BB88F80E090E0A4EBB2E469
:1010D00089A79AA7ABA7BCA7198E1A8E1B8E1C8E48
:1010E00019A21AA21BA21CA219861A861B861C868C
:1010F0008DA79EA7AFA7B8AB80E090E0A0E8BEE3C5
:101100008DA39EA3AFA3B8A78AE995ECADE9BAEB8E
:101110008D8F9E8FAF8FB8A39E012F5D3F4F259679
:101120003FAF2EAF2597AE01475D5F4F21965FAF72
:101130004EAF2197CE0101969CAB8BABDE011D9685
:10114000BAABA9ABFE01F1962396FFAFEEAF2397A2
:10115000230122E030E03AAF29AFABA9BCA9189631
:101160008D909D90AD90BC901B972196EEADFFADFC
:10117000219752914291329122912196FFAFEEAF89
:101180002197C501B4010E947B129B01AC012596F9
:10119000AEADBFAD25979E918E917E916E912596B5
:1011A000BFAFAEAF25970E9470136B017C01EBA916
:1011B000FCA96483758386839783A9A9BAA9149629
:1011C0002D913D914D915C9117972BAF3CAF4DAF59
:1011D0005EAF2396AEADBFAD23975E914E913E912B
:1011E0002E912396BFAFAEAF23972DAB3EAB4FAB47
:1011F00058AF2BAD3CAD4DAD5EADE9A9FAA9608508
:101200007185828593850E9470132DA93EA94FA9EF
:1012100058AD0E94DD1329966CAF7DAF8EAF9FAFA6
:101220002997A7019601C701B6010E947113A50174
:1012300094010E9471132DA93EA94FA958AD0E9497
:101240007B1220E030E040E450E40E94DD139B017B
:10125000AC0129966CAD7DAD8EAD9FAD29970E94F6
:1012600070132BAD3CAD4DAD5EADD20150962D93BC
:101270003D934D935C935397F201648B758B868BF2
:10128000978B5896CD92DD92ED92FC925B97A701D9
:101290009601C501B4010E9470136B017C0120E02E
:1012A00030E040E450E46DA97EA98FA998AD0E947A
:1012B0007B129B01AC01C701B6010E94DD13F20154
:1012C000648F758F868F978F29AD3AAD2150310984
:1012D0003AAF29AF4BA95CA9445051095CAB4BAB69
:1012E00089A99AA904979AAB89AB90E1491A510848
:1012F000232B09F032CFD8019C967C926E929B975B
:1013000081E09D968C936114710419F0C3010E94D1
:101310006915F80114AA81E080938D021092AF0242
:1013200010928E021092B00266E0C1010E94070482
:1013300081E00E94DE0BD801D4968C9383E290E08A
:101340000197F1F7F80183A981110CC080E480AB0B
:1013500040EA60E0C1010E94820E4CE061E0C10100
:101360000E94820ED801D3968C91D3978111A0C090
:10137000D0968C91D097D4961C9291E090938D0248
:101380008093AF0210928E021092B00260E0C10111
:101390000E94070481E00E94DE0BF80184AB8111FA
:1013A0006FC080A9D0908C02D110FCCF91E09093B7
:1013B0008C0290938B022FEF20938A021092890265
:1013C000109288029093670290916702880F892B90
:1013D0008093670280916602813061F41092660208
:1013E000809167028093BB008091BC0083FDF8CFA1
:1013F00085EC01C085EE8093BC0080918C02813029
:10140000E1F380918902811103C08091890201C0BA
:1014100081E0A8E6B2E0E0EFF1E0E12CE81621F08F
:101420009D919193E394FACF10921102E0921002F1
:10143000F12CF1E0EF16F104A9F021E0E21AF10835
:1014400068F0D8019E968D919C919F97DC01ED915B
:10145000FC910284F385E02D0995EFCF84E0F8013B
:1014600084AB0FC0D8019E968D919C919F97DC0113
:10147000ED91FC910284F385E02D0995D82E01C0F1
:10148000D12C1D2D1F76412F406160E0C1010E94CB
:10149000820E49E76EEFC1010E94820E412F406823
:1014A00060E0C1010E94820E8BEC97E00197F1F79A
:1014B000C85BDF4F0FB6F894DEBF0FBECDBFDF9124
:1014C000CF911F910F91FF90EF90DF90CF90BF9041
:1014D000AF909F908F907F906F905F904F903F90D4
:1014E0002F900895FC01538D448D252F30E0842FDB
:1014F00090E0821B930B541710F0CF96089501973C
:101500000895FC01918D828D981761F0828DDF0125
:10151000A80FB11D5D968C91928D9F5F9F73928FE6
:1015200090E008958FEF9FEF0895FC01918D828DDB
:10153000981731F0828DE80FF11D858D90E00895A8
:101540008FEF9FEF089581EB92E00E948D0021E0E4
:10155000892B09F420E0822F0895EF92FF920F93D8
:101560001F93CF93DF93EC0181E0888F9B8D8C8D4F
:10157000981305C0E889F989808185FD26C0F62E7B
:101580000B8D10E00F5F1F4F0F731127E02E8C8D16
:10159000E8120CC00FB607FCFACFE889F989808100
:1015A00085FFF5CFCE010E94E201F1CF8B8DFE01C8
:1015B000E80FF11DE35AFF4FF0829FB7F8940B8FAD
:1015C000EA89FB89808180620AC09FB7F894EE891E
:1015D000FF896083E889F9898081837080648083D2
:1015E0009FBF81E090E0DF91CF911F910F91FF901D
:1015F000EF900895CF93DF93EC01888D8823C9F095
:10160000EA89FB89808185FD05C0A889B9898C910B
:1016100086FD0FC00FB607FCF5CF808185FFF2CFA6
:10162000A889B9898C9185FFEDCFCE010E94E20196
:10163000E7CFDF91CF9108951F920F920FB60F92CF
:1016400011242F933F934F935F936F937F938F93C7
:101650009F93AF93BF93EF93FF9381EB92E00E9430
:10166000E201FF91EF91BF91AF919F918F917F9197
:101670006F915F914F913F912F910F900FBE0F90FF
:101680001F9018951F920F920FB60F9211242F934F
:101690008F939F93EF93FF93E091C102F091C20269
:1016A0008081E091C702F091C80282FD12C0908152
:1016B0008091CA028F5F8F732091CB02821751F005
:1016C000E091CA02F0E0EF54FD4F958F8093CA027B
:1016D00001C08081FF91EF919F918F912F910F9089
:1016E0000FBE0F901F901895CF92DF92EF92FF924E
:1016F0000F931F93CF93DF936C017A018B01C0E0AE
:10170000D0E0CE15DF0581F0D8016D918D01D601B5
:10171000ED91FC910190F081E02DC6010995892B96
:1017200011F02196EECF7E01C701DF91CF911F917D
:101730000F91FF90EF90DF90CF900895EF92FF927E
:101740000F931F93CF93DF93EC017B018A01888174
:101750009981009729F02A813B8124173507F8F4F5
:10176000B8016F5F7F4F0E94F215009759F099837F
:1017700088831B830A832C813D81232B81F4FC0108
:1017800010820DC088819981009711F00E9469151F
:10179000198218821D821C821B821A8207C01D8337
:1017A0000C83B701888199810E94C616CE01DF9112
:1017B000CF911F910F91FF90EF900895282F3091B6
:1017C000B002313208F04AC080918C028111FCCF06
:1017D0009091AF0242E040938C0220938B022FEF56
:1017E00020938A021092890230938802EFE8F2E097
:1017F000A8E6B2E020E0321721F041914D932F5F2F
:10180000FACF1092670220916702990F922B909362
:10181000670290916602913061F410926602909195
:1018200067029093BB009091BC0093FDF8CF95ECBC
:1018300001C095EE9093BC0090918C029230E1F340
:1018400090918A029F3F79F080918A02803241F024
:1018500080918A02803331F084E005C081E003C0CA
:1018600082E001C083E010928E021092B0021092CA
:101870008D020895AF92BF92CF92DF92EF92FF92C6
:101880000F931F93CF93DF93C82FD0E07E01EE0C10
:10189000FF1CF701E059FC4F0190F081E02DC78457
:1018A000D08887E08C9F80018D9F100D11240059F6
:1018B0001C4F580182EFA80EB11CF50180818111E7
:1018C0000CC00E94BD02F801EB50FF4F6083718392
:1018D0008283938381E0F50180830E94BD0227E02B
:1018E0002C9FA0012D9F500D1124DA01A059BC4F4F
:1018F000FD01EB50FF4F20813181AB01421B530BA7
:10190000329751834083C416D506B0F531971082C3
:10191000F701E059FC4F00811181F80182A5813067
:1019200059F5E12CF12C5801FBE2AF0EB11C680116
:101930008EE2C80ED11CF80164A175A1072E000C1F
:10194000880B990B0E941C12AB01BC01C5010E94BF
:101950001303AC01B701C6010E941104FFEFEF1A97
:10196000FF0A85E0E816F10431F782E0F80182A76A
:10197000C059DC4F81E08C87DF91CF911F910F918F
:10198000FF90EF90DF90CF90BF90AF9008951F939E
:10199000CF93DF9390E0FC01E059FC4F2485222394
:1019A00009F48BC037853F5F37872189231798F06B
:1019B000278534E6389FD001399FB00D1124A059F6
:1019C000BC4FA20FB11D5F963C91373478F1308740
:1019D0002F5F27872BC0278741E0420F34E6389FCF
:1019E000D001399FB00D1124A059BC4F30E0642FB5
:1019F00070E0ED01C60FD71F5F8D573420F4512FD3
:101A00004F5F152FF4CFEB01C21BD30B229734F09D
:101A1000C52FD0E0C11BD109229734F4ED01C60FC8
:101A2000D71F6E8D6C3361F7418BC2CFDC011296EC
:101A3000ED01CC0FDD1FC059DC4F18815785252FD4
:101A400030E044E6489FB001499F700D1124605971
:101A50007C4FEB01C20FD31F4F8D2F5F3F4FEB0128
:101A6000C20FD31F7F8DC189D0E060E0C217D307BA
:101A700068F0543340F46F5F471718F4511718F4A7
:101A800005C0151718F02F5F3F4FF0CFAA0FBB1FEF
:101A9000A059BC4F4C93663008F065E04550640F88
:101AA0006287880F991FFC01E059FC4F808191816A
:101AB000DF91CF911F910C944707DF91CF911F9138
:101AC00008954F925F926F927F928F929F92AF9202
:101AD000BF92CF92DF92EF92FF920F931F93CF931B
:101AE000DF93082F10E0F801EE0FFF1FE059FC4FC5
:101AF000C081D1818E8581508E87C880D980EA804F
:101B0000FB804C815D816E817F81C416D506E6061F
:101B1000F70609F05CC018160CF459C0F801E0593A
:101B2000FC4F5084C801880F991F9C012C583C4FD2
:101B30006901CE010E941B07F60180818C3321F4DC
:101B40005E8681E08AA735C04E01F1E18F0E911CBF
:101B5000E12CF12C3E012BE2620E711C5E013EE293
:101B6000A30EB11C44244394F401219131914F01FF
:101B7000F601808190E028173907A1F46EA17FA1BA
:101B8000072E000C880B990B0E941C12AB01BC01A4
:101B9000C3010E941303AC01B701C5010E941104E7
:101BA0005E864AA6FFEFEF1AFF0A25E0E216F1046F
:101BB000D9F60E94BD0227E0209FF001219FF00D81
:101BC0001124EB59FB4F6083718382839383DF91F0
:101BD000CF911F910F91FF90EF90DF90CF90BF902A
:101BE000AF909F908F907F906F905F904F900895EF
:101BF000EF92FF920F931F93CF93DF938C0180910D
:101C00005C038F5F80935C03E82EF12C2BE0829FB6
:101C1000C00111240E94D114EC01FC01A70181E054
:101C200091E0E91AF10820F490E0415051090DC00B
:101C300011821082128213821482158216821782F8
:101C40001086118682873B96EBCF292F30E0E091FA
:101C50005A03F0915B032417350784F48BE0989FB7
:101C600090011124DE01A20FB31FE20FF31F8BE0DE
:101C700001900D928A95E1F79F5FE7CF309719F0B9
:101C8000CF010E946915D0935B03C0935A038091E2
:101C90005C039BE0899FC00DD11D11242B971983F4
:101CA000088348E250E060E070E04A835B836C8325
:101CB0007D834E835F836887798791E09A8700915F
:101CC0006303109164032091650330916603015012
:101CD000110921093109083211052105310558F092
:101CE00040936303509364036093650370936603AA
:101CF000815080936703DF91CF911F910F91FF90E7
:101D0000EF9008951F93CF93DF93EC01142F8A81F6
:101D10001E8291E090938D028093AF0210928E020A
:101D20001092B002CE010E940704612FCE010E94E2
:101D3000070481E00E94DE0B8E83DF91CF911F911B
:101D4000089583E893E0892B61F080918903909155
:101D50008A030E94691580918303909184030E94F5
:101D6000691580917004909171040C9469157894B0
:101D700084B5826084BD84B5816084BD85B5826090
:101D800085BD85B5816085BD80916E008160809341
:101D90006E001092810080918100826080938100AA
:101DA00080918100816080938100809180008160BA
:101DB000809380008091B10084608093B100809115
:101DC000B00081608093B00080917A00846080933D
:101DD0007A0080917A00826080937A0080917A0004
:101DE000816080937A0080917A00806880937A0085
:101DF0001092C100E091C102F091C20232E0D32EF4
:101E0000D082E091BD02F091BE021082E091BF024B
:101E1000F091C0028FEC80831092C902E091C5025C
:101E2000F091C60286E08083E091C302F091C40283
:101E3000808180618083E091C302F091C40280813F
:101E400088608083E091C302F091C4028081806841
:101E50008083E091C302F091C40280818F7D8083F2
:101E60004CE050E06EE571E081EB92E00E94740B73
:101E700042E050E06BE671E081EB92E00E94740B6F
:101E800089E390E00E94D114EC010E949A07D0935C
:101E90006502C093640289E390E00E94D114EC01D2
:101EA0000E949A07D0936302C09362020091640279
:101EB0001091650280E190E0F801928B818B81E1C5
:101EC00090E0948B838B82E190E0968B858B83E10D
:101ED00090E0908F878B84E190E0928F818F85E0F6
:101EE00091E0958F848F4EE1E42EF12CFA8AE98AF5
:101EF0008FE190E09C8B8B8B80E290E09E8B8D8BB2
:101F000081E290E0988F8F8B82E290E09A8F898FA8
:101F100080E091E09D8F8C8FD68E85E0878F58E092
:101F2000C52EC0A289E081A361E082E00E945C022C
:101F300061E0F801878D0E945C0261E0F80180A1F8
:101F40000E945C0262E0F80181A10E945C0260E0F4
:101F5000F80180A10E942D0284E08E8F87E08F8F90
:101F6000C8A28BE089A361E084E00E945C0261E08A
:101F70008F8D0E945C0261E088A10E945C0262E099
:101F800089A10E945C0260E088A10E942D02F801F4
:101F9000F5A2E4A2FDA2ECA2F8941092B000109277
:101FA000B10010927000D092B1001092B20081E0A6
:101FB0008093700010925C0310925E0310925D0398
:101FC00010925F03109260031092610310926203FB
:101FD00010926303109264031092650310926603DB
:101FE0001092670386EB91E00E94F80D8CE891E077
:101FF0000E94F80D20E0422F50E080915C0390E0B9
:102000000197481759070CF045C0FBE02F9F80014E
:10201000112481E090915C038917D0F5C0915A0397
:10202000D0915B03DE01A00FB11F12964D915D911F
:102030006D917C9115979BE0899FC00DD11D112456
:10204000CA80DB80EC80FD80C416D506E606F70664
:10205000E8F4ED90FC90119716968D909D90AD90C0
:10206000BC9019971A963C911A979BE0FE0101903B
:102070000D929A95E1F7F982E8824A835B836C833B
:102080007D838E829F82A886B9863A878F5FC2CF72
:102090002F5FB1CF789440916303509164036091B6
:1020A00065037091660380915F0390916003A09136
:1020B0006103B0916203481B590B6A0B7B0BDB0178
:1020C000CA0180959095A095B0958F779927880F34
:1020D000991F90935E0380935D034038510561051D
:1020E000710518F01092B20002C08093B200C09146
:1020F0006402D091650280E19DEEA2E0B0E08883A9
:102100009983AA83BB838C839D83AE83BF8360E066
:10211000CE010E94470789A10E940402892BD9F7AA
:10212000188219821A821B821C821D821E821F82C3
:10213000C0916202D0916302188219821A821B82B6
:102140001C821D821E821F826FE2CE010E94470701
:1021500089A10E940402892BD9F780E592EBA2E0C5
:10216000B0E088839983AA83BB838C839D83AE83ED
:10217000BF83C0917003D0917103488159816A81F6
:102180007B818C819D81AE81BF81481759076A0789
:102190007B07C9F5E0917203F0917303408151818F
:1021A0006281738184819581A681B781481759071F
:1021B0006A077B0741F5CE010E941B0760917A03F5
:1021C0008989681719F180917003909171030E94B9
:1021D000470710927E03C0917203D0917303CE0122
:1021E0000E941B0760917B038989681799F0809191
:1021F0007203909173030E94470710927E038091AF
:102200007E0381110BC00E949900B3CF81E08093BF
:102210007E03E1CF81E080937E03F1CF80E00E94D6
:102220003A0C81E00E943A0C80917C03811104C039
:1022300080917D03882389F10E9498024B015C0103
:1022400084E6C82ED12CE12CF12C0E949802DC01EE
:10225000CB0188199909AA09BB09883E9340A105B9
:10226000B10598F3E1E0CE1AD108E108F108F8EEE3
:102270008F0EF3E09F1EA11CB11CC114D104E10418
:10228000F10419F780E00E94C70C81E00E94C70C9E
:1022900010927C0310927D03B6CFC0915704D09169
:1022A000580480915B0481110DC00E94BD026093AF
:1022B0005E0470935F04809360049093610481E0F6
:1022C00080935B040E94BD0220915E0430915F0404
:1022D000621B730B70935D0460935C04C617D70791
:1022E00008F091CF10925B0480E00E94610D81E0C4
:1022F0000E94610D88CFCF93DF93E1EBF2E0138270
:10230000128288EE93E0A0E0B0E084839583A683F8
:10231000B7832EE331E03183208325EC30E035872D
:10232000248724EC30E03787268720EC30E0318B9F
:10233000208B21EC30E0338B228B22EC30E0358B8C
:10234000248B26EC30E0378B268B118E128E138E69
:10235000148EEEE4F3E01382128284839583A683C5
:10236000B78380E591E091838083EAE5F3E0128210
:1023700014821382158216821782108611861286A5
:1023800013861486158616861786108A118A128A75
:10239000138A148A158AE0E7F4E01182108213820E
:1023A00012821582148241E850E06EE671E0CF019E
:1023B0000E949E0BC0E7D3E01C861D8681E08E87BD
:1023C0001F86188A198A1A8A1C8A1B8A1E8A1D8AE5
:1023D000188E1F8A40E050E06DE671E083E893E0DC
:1023E0000E949E0B1A8E198E1C8E1B8E1E8E1D8EA9
:1023F00040E050E06DE671E089E893E00E949E0BBA
:1024000084EF91E0909358048093570488E790E01C
:1024100090935A04809359041092620410926904B4
:1024200010925B04DF91CF9108950E94571208F437
:1024300081E00895E89409C097FB3EF4909580955B
:10244000709561957F4F8F4F9F4F9923A9F0F92F7A
:1024500096E9BB279395F695879577956795B795F8
:10246000F111F8CFFAF4BB0F11F460FF1BC06F5FDE
:102470007F4F8F4F9F4F16C0882311F096E911C0F0
:10248000772321F09EE8872F762F05C0662371F011
:1024900096E8862F70E060E02AF09A95660F771F25
:1024A000881FDAF7880F9695879597F90895990F01
:1024B0000008550FAA0BE0E8FEEF16161706E8070E
:1024C000F907C0F012161306E407F50798F0621B2F
:1024D000730B840B950B39F40A2661F0232B242B04
:1024E000252B21F408950A2609F4A140A6958FEF23
:1024F000811D811D08950E948E120C94FF120E946E
:10250000F11238F00E94F81220F0952311F00C948B
:10251000E8120C94EE1211240C9433130E94101341
:1025200070F3959FC1F3950F50E0551F629FF00126
:10253000729FBB27F00DB11D639FAA27F00DB11D3F
:10254000AA1F649F6627B00DA11D661F829F2227C8
:10255000B00DA11D621F739FB00DA11D621F839F4F
:10256000A00D611D221F749F3327A00D611D231F25
:10257000849F600D211D822F762F6A2F11249F5773
:1025800050409AF0F1F088234AF0EE0FFF1FBB1F76
:10259000661F771F881F91505040A9F79E3F510535
:1025A00080F00C94E8120C9433135F3FE4F3983EF0
:1025B000D4F3869577956795B795F795E7959F5FDF
:1025C000C1F7FE2B880F911D9695879597F9089571
:1025D00097F99F6780E870E060E008959FEF80ECD6
:1025E000089500240A941616170618060906089579
:1025F00000240A9412161306140605060895092EDF
:102600000394000C11F4882352F0BB0F40F4BF2B4D
:1026100011F460FF04C06F5F7F4F8F4F9F4F08958D
:1026200057FD9058440F551F59F05F3F71F0479583
:10263000880F97FB991F61F09F3F79F08795089568
:10264000121613061406551FF2CF4695F1DF08C087
:10265000161617061806991FF1CF869571056105A4
:1026600008940895E894BB2766277727CB0197F94C
:1026700008952F923F924F925F926F927F928F9226
:102680009F92AF92BF92CF92DF92EF92FF920F9301
:102690001F93CF93DF93CDB7DEB7CA1BDB0B0FB60B
:1026A000F894DEBF0FBECDBF09942A8839884888C8
:1026B0005F846E847D848C849B84AA84B984C8845E
:1026C000DF80EE80FD800C811B81AA81B981CE0F55
:1026D000D11D0FB6F894DEBF0FBECDBFED0108953A
:1026E0005058BB27AA270E9488130C94FF120E94FF
:1026F000F11238F00E94F81220F039F49F3F19F4DB
:1027000026F40C94EE120EF4E095E7FB0C94E8121C
:10271000E92F0E94101358F3BA1762077307840752
:10272000950720F079F4A6F50C9432130EF4E09599
:102730000B2EBA2FA02D0B01B90190010C01CA017B
:10274000A0011124FF27591B99F0593F50F4503E26
:1027500068F11A16F040A22F232F342F4427585F18
:10276000F3CF469537952795A795F0405395C9F730
:102770007EF41F16BA0B620B730B840BBAF09150E8
:10278000A1F0FF0FBB1F661F771F881FC2F70EC087
:10279000BA0F621F731F841F48F48795779567955A
:1027A000B795F7959E3F08F0B0CF9395880F08F046
:1027B0009927EE0F9795879508950E94F1130C9431
:1027C000FF120E94F81258F00E94F11240F029F412
:1027D0005F3F29F00C94E81251110C9433130C94C0
:1027E000EE120E94101368F39923B1F3552391F36D
:1027F000951B550BBB27AA2762177307840738F070
:102800009F5F5F4F220F331F441FAA1FA9F335D0CC
:102810000E2E3AF0E0E832D091505040E695001C80
:10282000CAF72BD0FE2F29D0660F771F881FBB1F3A
:10283000261737074807AB07B0E809F0BB0B802D18
:10284000BF01FF2793585F4F3AF09E3F510578F044
:102850000C94E8120C9433135F3FE4F3983ED4F3E6
:10286000869577956795B795F7959F5FC9F7880F18
:10287000911D9695879597F90895E1E0660F771F6A
:10288000881FBB1F621773078407BA0720F0621BFB
:10289000730B840BBA0BEE1F88F7E09508950E9426
:1028A00056146894B1110C94331308950E941813B0
:1028B00088F09F5798F0B92F9927B751B0F0E1F001
:1028C000660F771F881F991F1AF0BA95C9F714C0B1
:1028D000B13091F00E943213B1E008950C9432139C
:1028E000672F782F8827B85F39F0B93FCCF38695EA
:1028F00077956795B395D9F73EF490958095709547
:1029000061957F4F8F4F9F4F08950E94571208F493
:102910008FEF0895052E97FB1EF400940E94A114DA
:1029200057FD07D00E94A91407FC03D04EF40C9465
:10293000A11450954095309521953F4F4F4F5F4FD3
:10294000089590958095709561957F4F8F4F9F4F1B
:102950000895A1E21A2EAA1BBB1BFD010DC0AA1FE0
:10296000BB1FEE1FFF1FA217B307E407F50720F0F8
:10297000A21BB30BE40BF50B661F771F881F991F73
:102980001A9469F760957095809590959B01AC01BC
:10299000BD01CF010895EE0FFF1F0590F491E02DCA
:1029A00009940F931F93CF93DF938230910510F416
:1029B00082E090E0E0917804F091790420E030E04A
:1029C000A0E0B0E0309719F140815181028113817C
:1029D00048175907C8F08417950769F4109731F024
:1029E00012960C93129713961C9327C000937804A9
:1029F0001093790422C02115310519F042175307AD
:102A000018F49A01BD01EF01DF01F801DBCF2115B8
:102A10003105F9F0281B390B2430310580F48A8107
:102A20009B816115710521F0FB019383828304C0B2
:102A30009093790480937804FE01329644C0FE019D
:102A4000E20FF31F81939193225031093983288338
:102A50003AC02091760430917704232B41F42091E1
:102A60000C0130910D01309377042093760420916E
:102A70000A0130910B012115310541F42DB73EB704
:102A800040910E0150910F01241B350BE09176040B
:102A9000F0917704E217F307A0F42E1B3F0B2817E1
:102AA000390778F0AC014E5F5F4F2417350748F0C7
:102AB0004E0F5F1F50937704409376048193919358
:102AC00002C0E0E0F0E0CF01DF91CF911F910F91C4
:102AD0000895CF93DF93009709F481C0FC013297EA
:102AE00013821282A0917804B0917904109781F436
:102AF00020813181820F931F2091760430917704D9
:102B00002817390751F5F0937704E093760467C0EE
:102B1000ED0120E030E0CE17DF0740F44A815B8111
:102B20009E0141155105F1F0EA01F5CFD383C2832F
:102B300040815181840F951FC817D90759F48881A6
:102B40009981840F951F0296918380838A819B814E
:102B5000938382832115310529F4F0937904E0935E
:102B600078043DC0E901FB83EA8349915991C40F80
:102B7000D51FEC17FD0761F480819181840F951FAB
:102B80000296E90199838883828193819B838A835A
:102B9000E0E0F0E012968D919C911397009719F068
:102BA000FD01DC01F7CF8D919C9111979D012E5F66
:102BB0003F4F820F931F209176043091770428179E
:102BC000390769F4309729F4109279041092780447
:102BD00002C013821282B0937704A0937604DF912F
:102BE000CF910895A0E0B0E0E8EFF5E10C943D133B
:102BF000EC01009721F4CB010E94D114B4C0FC0178
:102C0000E60FF71F9C0122503109E217F30708F481
:102C1000A8C0D9010D911C91119706171707B0F0A4
:102C20000530110508F49BC0C80104978617970763
:102C300008F495C002501109061B170B019311935C
:102C40006D937C93CF010E94691589C05B01A01A26
:102C5000B10A4C01800E911EA0917804B0917904C4
:102C6000612C712CE12CF12C109709F446C08D9148
:102C70009C911197A815B905B1F56C0142E0C40EFD
:102C8000D11CCA14DB0478F14C018A189B0864013A
:102C900042E0C40ED11C1296BC9012971396AC91D0
:102CA000B5E0CB16D10440F0B282A383918280823A
:102CB000D9016D937C9309C00E5F1F4F800F911F48
:102CC000F90191838083EB2DFA2FE114F10431F0A7
:102CD000D7011396FC93EE93129741C0F0937904B9
:102CE000E09378043CC06816790608F43C017D0145
:102CF00012960D90BC91A02DB7CF80917604909143
:102D0000770488169906E1F466167706C8F4809170
:102D10000A0190910B01009741F48DB79EB7409145
:102D20000E0150910F01841B950BE817F907C8F4A9
:102D3000F0937704E0937604F901718360830FC008
:102D4000CB010E94D1147C01009759F0A801BE016B
:102D50000E94BD16CE010E946915C70104C0CE01B4
:102D600002C080E090E0CDB7DEB7EEE00C945913DE
:102D700081E090E0F8940C94CD16FB01DC0102C0D8
:102D800001900D9241505040D8F70895FB01DC01AD
:102D900001900D920020E1F7089510E0C2E6D0E026
:102DA00004C0FE010E94CB142196C336D107C9F797
:042DB000F894FFCFC5
:102DB4000506070809000102030400007A048000E4
:102DC4001E001F0020002100220000000008000453
:102DD400000C0002000E0006000A0001000F0005AE
:102DE4000009000D0003000B000700000000AD0AFD
:102DF400740B720AFA0A8D00810A950A0000000019
:102E040059012C01890100012401100101015365BC
:102E14007269616C20626567696E000D0A0047344F
:102E24002D312043352044352044352D322045357D
:102E34002045352D382043352D3120443520453566
:102E44002044352D322047352047352D3920524531
:102E54002D312043352D312044352045352044354E
:102E64002D322047352047352D382052452D31202D
:102E740047352D312041352042352042352D322031
:102E840043362043362D362044362D322045362015
:102E940044362043362042352D382052452D31000A
:107E0000112484B714BE81FFF0D085E080938100F7
:107E100082E08093C00088E18093C10086E0809377
:107E2000C20080E18093C4008EE0C9D0259A86E02C
:107E300020E33CEF91E0309385002093840096BBD3
:107E4000B09BFECF1D9AA8958150A9F7CC24DD24C4
:107E500088248394B5E0AB2EA1E19A2EF3E0BF2EE7
:107E6000A2D0813461F49FD0082FAFD0023811F036
:107E7000013811F484E001C083E08DD089C08234E0
:107E800011F484E103C0853419F485E0A6D080C0E4
:107E9000853579F488D0E82EFF2485D0082F10E0AE
:107EA000102F00270E291F29000F111F8ED06801E7
:107EB0006FC0863521F484E090D080E0DECF843638
:107EC00009F040C070D06FD0082F6DD080E0C81688
:107ED00080E7D80618F4F601B7BEE895C0E0D1E017
:107EE00062D089930C17E1F7F0E0CF16F0E7DF06D8
:107EF00018F0F601B7BEE89568D007B600FCFDCFD4
:107F0000A601A0E0B1E02C9130E011968C91119780
:107F100090E0982F8827822B932B1296FA010C0160
:107F200087BEE89511244E5F5F4FF1E0A038BF0790
:107F300051F7F601A7BEE89507B600FCFDCF97BE46
:107F4000E89526C08437B1F42ED02DD0F82E2BD052
:107F50003CD0F601EF2C8F010F5F1F4F84911BD097
:107F6000EA94F801C1F70894C11CD11CFA94CF0C13
:107F7000D11C0EC0853739F428D08EE10CD085E9AC
:107F80000AD08FE07ACF813511F488E018D01DD067
:107F900080E101D065CF982F8091C00085FFFCCF94
:107FA0009093C60008958091C00087FFFCCF809118
:107FB000C00084FD01C0A8958091C6000895E0E648
:107FC000F0E098E1908380830895EDDF803219F02E
:107FD00088E0F5DFFFCF84E1DECF1F93182FE3DFCA
:107FE0001150E9F7F2DF1F91089580E0E8DFEE27F6
:047FF000FF270994CA
:027FFE00040479
:0400000300007E007B
:00000001FF