:100000000C9463000C948B000C948B000C948B006C
:100010000C948B000C948B000C948B000C948B0034
:100020000C948B000C9433060C948B000C948B0076
:100030000C948B000C948B000C948B000C948B0014
:100040000C945C030C948B000C94DA0C0C94B40CA0
:100050000C948B000C948B000C948B000C948B00F4
:100060000C9405050C948B00000000002400270070
:100070002A0000000000250028002B0000000000DE
:1000800023002600290004040404040404040202DA
:100090000202020203030303030301020408102007
:1000A0004080010204081020010204081020000012
:1000B0000008000201000003040700000000000027
:1000C00000007F16AF1211241FBECFEFD8E0DEBFB5
:1000D000CDBF24E0A4EEB1E001C01D92AD37B20760
:1000E000E1F711E0A0E0B1E0EAEFF8E302C005902B
:1000F0000D92A43EB107D9F710E0C2E6D0E004C0EB
:100100002197FE010E944A1AC136D107C9F70E9401
:10011000C3120C94701C0C940000833081F028F4FE
:10012000813099F08230A1F008958730A9F08830AD
:10013000B9F08430D1F4809180008F7D03C080912C
:1001400080008F7780938000089584B58F7702C0F8
:1001500084B58F7D84BD08958091B0008F7703C0F2
:100160008091B0008F7D8093B00008953FB7F894E0
:1001700080919D0290919E02A0919F02B091A00259
:1001800026B5A89B05C02F3F19F00196A11DB11DF2
:100190003FBFBA2FA92F982F8827820F911DA11D2D
:1001A000B11DBC01CD0142E0660F771F881F991F6A
:1001B0004A95D1F70895DC018D919C91DC01ED9178
:1001C000FC910190F081E02D099485ED8093BC00B5
:1001D0008091BC0084FDFCCF10926E020895409186
:1001E0004802262F30E0240F311D21323105DCF486
:1001F00020916E022430C9F4FC0180E090E0861763
:1002000058F4309148022191DC01AA5DBD4FA30F43
:10021000B11D2C930196F3CF80914802680F609333
:10022000480280E0089581E0089582E008950895ED
:10023000E091250280912402E81730F4F0E0EC5FB1
:10024000FD4F808190E008958FEF9FEF089590918A
:10025000250280912402981750F4E92FF0E0EC5F1A
:10026000FD4F208130E09F5F9093250202C02FEF69
:100270003FEFC90108958091240290E0209125026A
:10028000821B91090895CF92DF92EF92FF920F9314
:100290001F93CF93DF937C01262F972F8A018091A4
:1002A0009702882391F0C62FD72F6E01C40ED51E5A
:1002B000CC15DD0571F06991D701ED91FC910190AC
:1002C000F081E02DC7010995F3CF642F822F0E94A2
:1002D000EF00C801DF91CF911F910F91FF90EF9038
:1002E000DF90CF900895CF93DF931F92CDB7DEB705
:1002F0006983209197022223D1F020919402203229
:1003000040F021E030E0FC013383228380E090E084
:1003100015C080919502E82FF0E0EC51FE4F9981D5
:1003200090838F5F809395028093940205C061E073
:10033000CE0101960E94EF0081E090E00F90DF91E6
:10034000CF9108952091940290919602213208F065
:1003500049C080916E028111FCCF32E030936E0271
:10036000609370023FEF30936D02109292022093DF
:100370009102A4EEB1E041E752E0FA013E2F341BB6
:10038000321718F43D913193F9CF109293022091D6
:100390009302990F922B9093930290916F02913058
:1003A00061F410926F02909193029093BB00909130
:1003B000BC0093FDF8CF95EC01C095EE9093BC0086
:1003C00090916E029230E1F390916D029F3F79F02F
:1003D00080916D02803241F080916D02803331F066
:1003E00084E005C081E003C082E001C083E0109298
:1003F0009502109294021092970208950F931F9302
:10040000CF93DF931F92CDB7DEB78C01FC018281C1
:10041000168291E090939702809396021092950233
:1004200010929402C80149830E94DB004981642F25
:10043000C8010E94DB0061E0F801808191810E9487
:10044000A201F80186830F90DF91CF911F910F9148
:100450000895089580E090E00895E091A102F09160
:10046000A202408151816281738184819581A6813C
:10047000B781481759076A077B07C1F080E189B93E
:10048000E091A102F091A2028085082E000C990B48
:10049000AA0BBB0B4081518162817381840F951F30
:1004A000A61FB71F80839183A283B3830895E09131
:1004B000A302F091A4024081518162817381848101
:1004C0009581A681B781481759076A077B07C1F054
:1004D00084E089B9E091A302F091A4028085082EFE
:1004E000000C990BAA0BBB0B408151816281738177
:1004F000840F951FA61FB71F80839183A283B383A8
:100500000895CF93DF93282F30E0F901E255FF4F94
:100510008491F901E656FF4FD491F901EA57FF4F54
:10052000C491CC2391F081110E948D00EC2FF0E05A
:10053000EE0FFF1FE458FF4FA591B491EC91ED230E
:1005400081E090E021F480E002C080E090E0DF9163
:10055000CF9108951F93CF93DF93282F30E0F901B7
:10056000E255FF4F8491F901E656FF4FD491F9010E
:10057000EA57FF4FC491CC23C9F0162F81110E9476
:100580008D00EC2FF0E0EE0FFF1FEE58FF4FA5910E
:10059000B4918FB7F894111105C09C91ED2FE0959F
:1005A000E92302C0EC91ED2BEC938FBFDF91CF914B
:1005B0001F910895CF93DF9390E0FC01E656FF4F23
:1005C0002491FC01EA57FF4F8491882361F190E068
:1005D000880F991FFC01E859FF4FC591D491FC0188
:1005E000EE58FF4FA591B491611109C09FB7F894DF
:1005F0008881209582238883EC912E230BC0623062
:1006000061F49FB7F8943881822F80958323888383
:10061000EC912E2B2C939FBF06C08FB7F894E881E6
:100620002E2B28838FBFDF91CF9108958F929F92B9
:10063000AF92BF92CF92DF92EF92FF926B017C015B
:100640000E94B6004B015C01C114D104E104F10425
:10065000F1F00E94B600DC01CB0188199909AA09C2
:10066000BB09883E9340A105B10570F321E0C21A91
:10067000D108E108F10888EE880E83E0981EA11CDD
:10068000B11CC114D104E104F10419F7DDCFFF90CE
:10069000EF90DF90CF90BF90AF909F908F90089594
:1006A0002FB7F8946091990270919A0280919B0201
:1006B00090919C022FBF08951F920F920FB60F9238
:1006C00011242F933F938F939F93AF93BF93809168
:1006D000990290919A02A0919B02B0919C02309154
:1006E000980223E0230F2D3720F40196A11DB11DA0
:1006F00005C026E8230F0296A11DB11D2093980284
:100700008093990290939A02A0939B02B0939C02CB
:1007100080919D0290919E02A0919F02B091A002B3
:100720000196A11DB11D80939D0290939E02A093FE
:100730009F02B093A002BF91AF919F918F913F9183
:100740002F910F900FBE0F901F901895EF92FF9270
:100750000F931F93CF93DF937C01EB018A016F3FCF
:100760008FEF780721F0660F660F6A5F01C06AEFAE
:10077000F7018281168291E090939702809396020E
:100780001092950210929402C7010E94DB00D7FDDF
:1007900012C0F70183819481009719F4DC2FCC27D4
:1007A0000CC0019741F4CC0FDD1FC65EDE4F0990EF
:1007B000D881C02D02C0C0E0D0E00115110581F044
:1007C0000115F0E11F0720F0D06100E010E00AC041
:1007D0000C0F1D1F011580E1180720F0105102C0F9
:1007E00000E010E16C2FC7010E94DB006D2FC701F4
:1007F0000E94DB00602FC7010E94DB00612FC70150
:100800000E94DB0061E0F701808191810E94A201DA
:10081000F7018683DF91CF911F910F91FF90EF90A9
:1008200008958F929F92AF92BF92CF92DF92EF92F4
:10083000FF92CF93DF93EC01CB01BA0120E030E0CF
:1008400044EB52E40E94C8186B017C0120E030E0C8
:10085000A9010E946C1787FD11C020E030E044E33D
:1008600053E4C701B6010E94DC19181654F4C12CD8
:10087000D12C84E3E82E83E4F82E03C0C12CD12CC4
:1008800076018A810990D881C02D81110DC02C81FB
:100890003D814E815F81C701B6010E94D217288138
:1008A00039814A815B8173C020E030E044EB52E43F
:1008B000C701B6010E946C1718164CF12C813D81BE
:1008C0004E815F81C701B6010E94D217288139810C
:1008D0004A815B810E94C8184B015C0128853985DB
:1008E0004A855B85C701B6010E94D217A701960110
:1008F0000E94D2179B01AC01C501B4010E94C81827
:100900004B015C012C853D854E855F8530C020E024
:1009100030E044EB52E4C701B6010E94C7186B01F6
:100920007C012C893D894E895F890E94D2172889D4
:1009300039894A895B890E94C8184B015C01288D5E
:10094000398D4A8D5B8DC701B6010E94D217A70170
:1009500096010E94D2179B01AC01C501B4010E940F
:10096000C8184B015C012C8D3D8D4E8D5F8DC701EC
:10097000B6010E94D217A70196010E94D217A701C3
:1009800096010E94D2179B01AC01C501B4010E94DF
:10099000C8186B017C0120E030E0A9010E94DC193D
:1009A00020E030E040E05FE387FD13C0C701B601FF
:1009B0000E94C8180E94A61977FD1AC020E030E0F6
:1009C00040E05FE3C701B6010E94C8180E94A61963
:1009D00008C0C701B6010E94C7180E94A61977FD7A
:1009E00007C0CB016130704128F080E090E102C087
:1009F00080E090E0DF91CF91FF90EF90DF90CF907B
:100A0000BF90AF909F908F9008951F920F920FB656
:100A10000F9211242F933F934F935F936F937F9384
:100A20008F939F93AF93BF93EF93FF938091B90000
:100A3000887F803609F49CC068F5883209F45BC071
:100A400090F4803109F454C038F4882309F4F6C0D6
:100A5000883009F44DC0F6C0883109F44CC08032AA
:100A600009F45DC0EFC0803409F468C048F48033F5
:100A700009F455C0883309F0E5C080936D02D8C0F1
:100A8000803509F44FC0883509F45DC0883409F019
:100A9000D9C0D6C0883909F4C7C0A8F4883709F48A
:100AA00067C038F4883609F463C0803709F460C041
:100AB000C9C0883809F4B8C0803909F45FC08038EB
:100AC00009F0C0C05BC0803B09F486C038F4803AAE
:100AD00009F466C0883A09F47FC0B4C0803C09F4C8
:100AE000A7C0883C09F4A4C0883B09F48AC0AAC006
:100AF0008091930210C09091920280919102981778
:100B000070F5E091920281E08E0F80939202F0E006
:100B1000EF58FD4F80818093BB0085EC86C08093A9
:100B20006D028EC0E091920281E08E0F809392025E
:100B30008091BB00F0E0EF58FD4F808390919202CE
:100B4000809191026EC0E091920281E08E0F8093BD
:100B500092028091BB00F0E0EF58FD4F80838091BE
:100B6000700281116DC081E080936F0284EA61C0E0
:100B700083E080936E0210926C02CFCF80916C0262
:100B8000803208F051C0E0916C0281E08E0F8093BA
:100B90006C028091BB00F0E0E45BFD4F8083BDCF31
:100BA00085EC8093BC0010926E0280916C028032C2
:100BB00030F4E0916C02F0E0E45BFD4F1082609154
:100BC0006C0270E0E0914A02F0914B028CE492E0FA
:100BD000099510926C0236C084E080936E021092E8
:100BE000490210924802E0914602F09147020995AD
:100BF00080914802811105C081E0809348021092E3
:100C00002602E091490281E08E0F80934902F0E0D4
:100C1000EA5DFD4F80818093BB00909149028091F5
:100C20004802981708F479CF85E88093BC000AC081
:100C300085EC8093BC0010926E0204C010926D028D
:100C40000E94E500FF91EF91BF91AF919F918F912D
:100C50007F916F915F914F913F912F910F900FBEB8
:100C60000F901F9018951F920F920FB60F9211249C
:100C7000CF92DF92EF92FF920F931F932F933F93A8
:100C80004F935F936F937F938F939F93AF93BF9394
:100C9000CF93DF93EF93FF930E94500360935C0325
:100CA00070935D0380935E0390935F038091530381
:100CB00090915403A0915503B091560380589F4FD3
:100CC000AF4FBF4F8093530390935403A0935503AA
:100CD000B0935603409157035091580360915903C4
:100CE00070915A0384179507A607B707D0F4481BDD
:100CF000590B6A0B7B0B9A012F773327220F331F77
:100D00008FEF90E0821B930B9093520380935103DB
:100D1000403851056105710510F082E0FCC08E5F1E
:100D2000FAC010925303109254031092550310927C
:100D3000560310E03091500380914E0390914F0381
:100D4000131708F046C02BE0129FE0011124FC01AC
:100D5000EC0FFD1F22852223D1F14681578160854A
:100D6000718520915B03DC013BE0239FA00DB11D49
:100D7000112416968D919D910D90BC91A02D481730
:100D800059076A077B0799F40190F081E02D0995D6
:100D900080914E0390914F03C80FD91F8A819B8188
:100DA000AC81BD818E839F83A887B98710C0809155
:100DB000570390915803A0915903B0915A03481BCF
:100DC000590B6A0B7B0B46835783608771871F5FC4
:100DD000B1CF10925B03FC01759621E02317F8F464
:100DE00040814423C9F040915B03EC015BE0459FE7
:100DF000C00DD11D1124DF011497CD90DD90ED9031
:100E0000FC904E815F8168857985C416D506E6061B
:100E1000F70610F420935B032F5F3B96DFCF209102
:100E20005B03FC013BE0239FE00DF11D1124868153
:100E30009781A085B1858093570390935803A09321
:100E40005903B0935A034091530350915403609156
:100E5000550370915603841B950BA60BB70B8F7728
:100E60009927880F991F2FEF30E0A901481B590BD4
:100E700050935203409351030E94500300915C032E
:100E800010915D0320915E0330915F03DC01CB0183
:100E9000801B910BA20BB30B8093600390936103B3
:100EA000A0936203B093630300915703109158031A
:100EB0002091590330915A03C0905303D0905403AA
:100EC000E0905503F09056030C191D092E093F09B7
:100ED000003811052105310538F04696A11DB11DD8
:100EE000BC01660F771F0BC0209151033091520354
:100EF000245D3F4FBC01660F771F620F731F709315
:100F000052036093510380915103909152038F3F9C
:100F1000910508F08EEF8093B200FF91EF91DF9181
:100F2000CF91BF91AF919F918F917F916F915F9181
:100F30004F913F912F911F910F91FF90EF90DF9074
:100F4000CF900F900FBE0F901F901895CF92DF9209
:100F5000EF92FF92CF93DF93EC01688179818A81D0
:100F60009B8120EA30E040E050E00E94171ACA015D
:100F7000B9010E94731720E030E04CEB51E40E946D
:100F800034196B017C0120E030E0A9010E94DC19DA
:100F900020E030E040E05FE387FD05C0C701B60117
:100FA0000E94C81804C0C701B6010E94C7180E9459
:100FB000A61989899A89681B790BFE0171966B962F
:100FC00080819181860F971F81939193EC17FD0784
:100FD000B9F7DF91CF91FF90EF90DF90CF90089518
:100FE0000F931F93CF93DF93EC0170E080E090E0CC
:100FF0000E94731720E030E04CEB51E40E94D217BE
:1010000020E030E0A9010E94C81820E030E040E272
:1010100053E40E94D2170E94A6196C837D838E83AD
:101020009F83088119812A813B81601B710B820B90
:10103000930B69877A878B879C876115710581057A
:101040009105E1F09B01AC0197FF07C022273327F0
:10105000A901261B370B480B590B0E94171A8D85C7
:1010600081112195288761E012160CF460E08F8DC4
:10107000DF91CF911F910F910C94AA02DF91CF9134
:101080001F910F9108950F931F93CF93DF93EC015E
:1010900000E010E06CA17DA1072E000C880B990BDD
:1010A0000E947317AB01BC018BA59CA50E94110483
:1010B000AC01EC8DFD8DE00FF11F60818DA59EA52B
:1010C000603118F470E00E94A6030F5F1F4F0530D7
:1010D000110501F782E08AA7DF91CF911F910F914F
:1010E00008952F923F924F925F926F927F928F92CC
:1010F0009F92AF92BF92CF92DF92EF92FF920F93A7
:101100001F93CF93DF93CDB7DEB7C154D1090FB68C
:10111000F894DEBF0FBECDBF8C01DC011D921D9285
:101120001D921C921397FC0114821582168217825D
:10113000FF24F394F08619961D921D921D921C9225
:101140001C971D961C921D971E96FC921E975096FA
:101150001C921E921F978AE0E0E1F1E05196019007
:101160000D928A95E1F7F801F38E86E990E091A758
:1011700080A780E090E0ACEBB1E487A790ABA1AB97
:10118000B2AB109225021092240210929502109296
:10119000940210926E02F092700210926F0261E05F
:1011A00082E10E94AA0261E083E10E94AA0280918A
:1011B000B9008E7F8093B9008091B9008D7F8093B4
:1011C000B90088E48093B80085E48093BC008CE08B
:1011D0008093B80083E090E00E94501A9CAB8BABE8
:1011E00080E290E00E94501AABA9BCA98C931196A2
:1011F0009C9311971296FC9240E050E06CEC72E4E4
:101200004D875E876F87788B40E050E06BE973E431
:10121000498B5A8B6B8B7C8B40E050E86CEF73E40E
:101220004D8B5E8B6F8B788F40E050E064EB72E407
:1012300049A75AA76BA77CA7198E1A8E1B8E1C8EE6
:1012400019A21AA21BA21CA219861A861B861C862A
:101250004DA75EA76FA778AB40E050E060E87EE363
:101260004DA35EA36FA378A74AE955EC6DE97AEB2D
:101270004D8F5E8F6F8F78A3FE013196FAABE9AB8D
:101280002E01FDE04F0E511C3C0194E0292E312C23
:1012900089E1E82EF12CEC0EFD1EE20CF31CE1E2DC
:1012A000F0E0EC0FFD1FE20DF31DA9A9BAA91896F5
:1012B0002D913D914D915C911B976081718182814F
:1012C00093810E94D2179B01AC01F701608171816B
:1012D000828193810E94C7186B017C01A9A9BAA9D8
:1012E00014966D937D938D939C931797D2011496CA
:1012F0002D913D914D915C9117972DAB3EAB4FAB2E
:1013000058AFE9E2F0E0EC0FFD1FE20DF31D808025
:101310009180A280B380B4E02B1A3108A9A9BAA9A0
:1013200018962D913D914D915C911B9729AF3AAF45
:101330004BAF5CAF2DA93EA94FA958ADF201608516
:101340007185828593850E94C718A50194010E942A
:10135000341921966CAF7DAF8EAF9FAF2197A70157
:101360009601C701B6010E94C8189B01AC0169AD86
:101370007AAD8BAD9CAD0E94C8189B01AC01C50134
:10138000B4010E94D21720E030E040E450E40E9413
:1013900034199B01AC0121966CAD7DAD8EAD9FAD36
:1013A00021970E94C7182DA93EA94FA958ADD30176
:1013B00050962D933D934D935C935397F301648B1B
:1013C000758B868B978B5896CD92DD92ED92FC9221
:1013D0005B97A701960169AD7AAD8BAD9CAD0E947C
:1013E000C7186B017C0120E030E040E450E4C50107
:1013F000B4010E94D2179B01AC01C701B6010E9443
:101400003419F301648F758F868F978F29A93AA9B4
:10141000245031093AAB29AB34E0431A510840E17A
:10142000641A71085CEF25165FEF350609F030CFBE
:10143000EBA9FCA9D8019C96FC93EE939B9787E0BF
:1014400090E00E94501A7C0182E493E0D70111964B
:101450009C938E9314961C921E92139715961C9231
:10146000159716961C921697F801F6A6E5A680E445
:1014700012968C9340EA60E0C7010E94FE014CE0A6
:1014800061E0C7010E94FE01D8019D960D911C915B
:101490009E97F80185818111A3C08281168291E017
:1014A0009093970280939602109295021092940264
:1014B00060E0C8010E94DB0061E0D8018D919C9141
:1014C0000E94A201F801868381116CC08281F09094
:1014D0006E02F110FCCF91E090936E029093700237
:1014E0002FEF20936D02109292021092910290932E
:1014F000930290919302880F892B8093930280919D
:101500006F02813061F410926F0280919302809398
:10151000BB008091BC0083FDF8CF85EC01C085EE57
:101520008093BC0080916E028130E1F38091920241
:10153000811103C08091920201C081E0A1E7B2E075
:1015400024E032E0F9019E2F921B981718F49D9128
:101550009193F9CF1092250280932402C82ED12CAA
:101560008130A1F0B1E0CB1AD10858F0D8018D91AB
:101570009C91DC01ED91FC910284F385E02D0995AD
:10158000F1CF84E0D80116968C930DC0F8018081CC
:101590009181DC01ED91FC910284F385E02D0995A8
:1015A000F82E01C0F12C2F2D2F76422F406160E0E4
:1015B000C80122962FAF22970E94FE0149E76EEFE5
:1015C000C8010E94FE0122962FAD2297422F40684B
:1015D00060E0C8010E94FE018BEC97E00197F1F7F3
:1015E000CF5BDF4F0FB6F894DEBF0FBECDBFDF91EC
:1015F000CF911F910F91FF90EF90DF90CF90BF9010
:10160000AF909F908F907F906F905F904F903F90A2
:101610002F900895CF92DF92EF92FF920F931F9336
:10162000CF93DF936C017A018B01C0E0D0E0CE153F
:10163000DF0589F0D8016D918D01D601ED91FC9106
:101640000190F081E02DC6010995892B11F47E01EE
:1016500002C02196ECCFC701DF91CF911F910F916E
:10166000FF90EF90DF90CF900895FC01538D448D53
:10167000252F30E0842F90E0821B930B541710F03D
:10168000CF96089501970895FC01918D828D98174A
:1016900061F0828DDF01A80FB11D5D968C91928D56
:1016A0009F5F9F73928F90E008958FEF9FEF089553
:1016B000FC01918D828D981731F0828DE80FF11D1C
:1016C000858D90E008958FEF9FEF0895FC01918D37
:1016D000228D892F90E0805C9F4F821B91098F7330
:1016E0009927089585EA92E00E94660B21E0892BF4
:1016F00009F420E0822F0895FC01848DDF01A80FFA
:10170000B11DA35ABF4F2C91848D90E001968F7329
:101710009927848FA689B7892C93A089B1898C9148
:1017200080648C93938D848D981306C00288F3890E
:10173000E02D80818F7D80830895EF92FF920F933B
:101740001F93CF93DF93EC0181E0888F9B8D8C8D6D
:10175000981305C0E889F989808185FD24C0F62E9B
:101760000B8D10E00F5F1F4F0F731127E02E8C8D34
:10177000E8120CC00FB607FCFACFE889F98980811E
:1017800085FFF5CFCE010E947C0BF1CF8B8DFE0142
:10179000E80FF11DE35AFF4FF0820B8FEA89FB89B6
:1017A0008081806207C0EE89FF896083E889F989BA
:1017B00080818064808381E090E0DF91CF911F91F0
:1017C0000F91FF90EF900895CF93DF93EC01888DF8
:1017D0008823C9F0EA89FB89808185FD05C0A88935
:1017E000B9898C9186FD0FC00FB607FCF5CF8081BB
:1017F00085FFF2CFA889B9898C9185FFEDCFCE0105
:101800000E947C0BE7CFDF91CF91089580E090E0BC
:10181000892B29F00E94720B81110C94000008950D
:101820000F931F93CF93DF93EC01888199810097E9
:1018300029F02A813B812617370788F48B016F5FD7
:101840007F4F0E947D1B009761F0998388831B83E3
:101850000A832C813D81232B11F4FC01108281E04D
:1018600001C080E0DF91CF911F910F910895CF9338
:10187000DF93EC0188819981009711F00E94E51AAD
:10188000198218821D821C821B821A82DF91CF91DD
:101890000895EF92FF920F931F93CF93DF93EC0184
:1018A0007B018A01BA010E94100C811104C0CE0193
:1018B0000E94370C07C01D830C83B7018881998172
:1018C0000E94691CCE01DF91CF911F910F91FF9073
:1018D000EF9008950E94471CCF93DF93EC016115B0
:1018E000710559F0FB0101900020E9F73197AF0134
:1018F000461B570B0E94490C02C00E94370CCE01B8
:10190000DF91CF910895CF93DF93EC01FB01861710
:10191000970761F0608171816115710529F044813B
:1019200055810E94490C02C00E94370CCE01DF9104
:10193000CF910895FC01808191810C94E51AFC01FE
:101940001182108213821282158214826115710530
:1019500051F0FB0101900020E9F73197AF01461BE0
:10196000570B0C94490C08951F920F920FB60F92CB
:1019700011242F933F934F935F936F937F938F9394
:101980009F93AF93BF93EF93FF9385EA92E00E94FA
:101990007C0BFF91EF91BF91AF919F918F917F91C0
:1019A0006F915F914F913F912F910F900FBE0F90CC
:1019B0001F9018951F920F920FB60F9211242F931C
:1019C0008F939F93EF93FF93E091B502F091B6024E
:1019D0008081E091BB02F091BC0282FD12C0908137
:1019E0008091BE028F5F8F732091BF02821751F0EA
:1019F000E091BE02F0E0EB55FD4F958F8093BE0263
:101A000001C08081FF91EF919F918F912F910F9055
:101A10000FBE0F901F901895EF92FF920F931F9398
:101A2000CF93DF9390E0FC01EE0FFF1FEC59FC4FCA
:101A3000A389B489B08BA787E3A0F4A070E0739664
:101A400024E6289FA001299F500D11244C595C4F7A
:101A5000808191818E159F0510F59C012F5F3F4F6E
:101A6000318320838A01020F131FE8016FA16734BD
:101A700098F02A1B3B0B223031053CF0262F30E03A
:101A8000271B31092230310554F4840F951FEC01D6
:101A90008FA18C3311F403C0672F762FD9CFDF913C
:101AA000CF911F910F91FF90EF900895FC01248139
:101AB00035816217730720F480819181009729F4A2
:101AC0001092780488E794E00895860F971F089590
:101AD000BF92CF92DF92EF92FF920F931F93CF931B
:101AE000DF937C016B018A01E9012417350720F49B
:101AF000812F8901C42FD82F6DE671E0C7010E94A4
:101B00009F0CD60114968D919C9115970817190773
:101B1000D0F48C179D0708F4EC01D601ED91FC91EF
:101B20001197EC0FFD1FB08010824D915C91BA01AE
:101B3000600F711FC7010E946C0CD601ED91FC91E2
:101B4000EC0FFD1FB082C701DF91CF911F910F9164
:101B5000FF90EF90DF90CF90BF900895AF92BF922B
:101B6000CF92DF92EF92FF920F931F93CF93DF9369
:101B7000C82FD0E07E01EE0CFF1CF701EC59FC4FA2
:101B80000190F081E02DC784D08887E08C9F800190
:101B90008D9F100D11240C591C4F58018AEFA80E6F
:101BA000B11CF501808181110CC00E945003F80125
:101BB000E350FF4F608371838283938381E0F5015B
:101BC00080830E94500327E02C9FA0012D9F500D81
:101BD0001124DA01AC59BC4FFD01E350FF4F2081C5
:101BE0003181AB01421B530B329751834083C416A2
:101BF000D50680F431971082F701EC59FC4F8081B3
:101C00009181FC0112A5113029F40E944308CC599E
:101C1000DC4F1C87DF91CF911F910F91FF90EF90C8
:101C2000DF90CF90BF90AF900895009769F0FC01CE
:101C300001900020E9F73197AF01481B590BBC0117
:101C400085EA92E00C940A0B80E090E008958F9270
:101C50009F92AF92BF920F931F93CF93DF93CDB715
:101C6000DEB7A1970FB6F894DEBF0FBECDBF19A2A5
:101C7000423008F44AE08E010F5D1F4F842E912CF4
:101C8000A12CB12CA50194010E94F519E62FB901F0
:101C9000CA0101501109EA3014F4E05D01C0E95CA9
:101CA000D801EC93232B242B252B61F7C8010E942C
:101CB000150EA1960FB6F894DEBF0FBECDBFDF9113
:101CC000CF911F910F91BF90AF909F908F900895EB
:101CD000CF92DF92EF92FF92CF93DF936C01990F37
:101CE000EE08FF08F7FE1AC0E091A502F091A602E7
:101CF0000190F081E02D6DE285EA92E00995EC011A
:101D000066277727CB016C197D098E099F094AE068
:101D10000E94270E7C01EC0EFD1E06C04AE0C701A2
:101D2000B6010E94270E7C018BE691E00E94150E01
:101D30008E0D9F1DDF91CF91FF90EF90DF90CF90A0
:101D40000895AF92BF92CF92DF92EF92FF920F93DE
:101D50001F93CF93DF931F92CDB7DEB7082F10E00C
:101D60007801EE0CFF1CD701AC59BC4F1F962D918A
:101D70003C91509794E6909FF001919FF00D1124B3
:101D8000EC59FC4FE20FF31F97A19734A0F0F80134
:101D9000EC59FC4F908793966D917C919497A90193
:101DA000415051094617570730F42F5F3F4F509667
:101DB0003C932E931F97A8014E5F5F4FFA01EE0FE1
:101DC000FF1FEC59FC4F3081F701EC59FC4F678540
:101DD0007089A3A1B4A124E6829FC00111245B01F4
:101DE000AA16BB0640F4F501E80FF91FEC59FC4FA9
:101DF00027A12C3341F0C501FD01EA19FB093497F5
:101E000030F420E029C022E0A20EB11CE9CF24E684
:101E1000209FF001219FF00D1124EC59FC4FEA0D99
:101E2000FB1DD7A0C1A420E0E32FF0E0A817B9075D
:101E300080F035E3A316B10454F42F5FDC1420F4D2
:101E4000AE16BF0624F405C0EA15FB0514F0029691
:101E5000EDCF263008F025E0440F551FFA01EC596C
:101E6000FC4F34E6309FC001319F900D1124AC012E
:101E70004C595C4F6A01DA01A60FB71F97968C91F7
:101E8000808386ED91E029830E94150EC5010E9492
:101E9000680ED801AC59BC4FF501EC0DFD1D87A1B2
:101EA00085502981280F1A962C931A97F701EC591F
:101EB000FC4F87859089F601E80FF91F80A51896D9
:101EC0008C930F90DF91CF911F910F91FF90EF9026
:101ED000DF90CF90BF90AF900895CF93DF93682F9E
:101EE00070E080E090E04AE00E94270EEC018BE673
:101EF00091E00E94150E8C0F9D1FDF91CF910895E8
:101F0000EF92FF921F93CF93DF93C82FD0E09E01F3
:101F10002C593C4F7901F9019485992319F1182F17
:101F2000CC0FDD1FFE01EC59FC4F8785908902968E
:101F3000908B878723893489281739071CF4812FD0
:101F40000E940C0D812F0E94A10ECC59DC4FF7018D
:101F5000628588819981DF91CF911F91FF90EF90E9
:101F60000C94F007DF91CF911F91FF90EF900895AF
:101F70006F927F928F929F92AF92BF92CF92DF9299
:101F8000EF92FF920F931F93CF93DF93082F10E0F0
:101F90006801CC0CDD1CE601CC59DC4FE881F981ED
:101FA00086858150868780809180A280B38044811D
:101FB00055816681778184169506A606B70609F0D5
:101FC0007FC018160CF47CC08AED91E00E94150EBB
:101FD000C801880F991F9C0128593C4F7901F901CC
:101FE00080810E946D0FF801EC59FC4F80853AEB1F
:101FF000732E780E0990D881C02DCE010E94A607BD
:10200000F70180818C3321F47E8681E08AA736C077
:102010004E01F1E18F0E911CA12CB12C662463942A
:10202000F401219131914F01F701808190E028174F
:102030003907E9F46EA17FA1072E000C880B990BDC
:102040000E947317AB01BC018BA59CA50E941104D3
:10205000AC01EC8DFD8DEA0DFB1D60818DA59EA56B
:10206000603118F470E00E94A6037E866AA6FFEF36
:10207000AF1ABF0A25E0A216B10491F6F601EC5999
:10208000FC4F0190F081E02D468520915304309162
:1020900054044203C001439F900D112484569109BA
:1020A000908B87870E94500327E0209FF001219F9B
:1020B000F00D1124EF59FB4F60837183828393836A
:1020C000DF91CF911F910F91FF90EF90DF90CF9014
:1020D000BF90AF909F908F907F906F9008952F92B8
:1020E0003F924F925F926F927F928F929F92AF92A8
:1020F000BF92CF92DF92EF92FF920F931F93CF93F5
:10210000DF93CDB7DEB768970FB6F894DEBF0FBE8A
:10211000CDBF8C01362EE62EF12C26E0629FC00149
:102120001124B80185589C4F0E94830C1C8A1B8A7D
:102130001E8A1D8A188E1F8AB801CE0143960E94FE
:10214000830C34E6339EC0011124FC01EC59FC4F92
:102150006F0122242394A12CB12C01E010E0812CEA
:10216000912C6F88788C0615170509F401C1C401FC
:1021700001968615970570F44B885C8860E270E0E4
:10218000840D951D0E94551C009721F08C010419A7
:10219000150917FD83019801A401BE016D5E7F4FF3
:1021A000CE010D960E94680D49895A896D857E85FC
:1021B00085EA92E00E940A0B8DED91E00E94150ED7
:1021C0004801FFEF8F1A9F0A69887A8861147104A9
:1021D00061F04D845E846DE270E0C2010E94551C86
:1021E000009719F08419950902C08FEF9FEF582EC0
:1021F00087FF02C0562C1DC0082E000C990BAC01A5
:102200004F5F5F4F9301BE01635F7F4FCE01019629
:102210000E94680D89819A81009719F00E94061723
:1022200001C060E0E6E42E2E260ECE0101960E944B
:102230009A0C252D550C330B40E050E0BE01635F36
:102240007F4FCE0107960E94680D1A8219821C8268
:102250001B821E821D82BE01695F7F4FCE010196E7
:102260000E94830C60E070E0CE0101960E94560D42
:1022700060E070E0CE0101960E94560DFC01608086
:1022800060E070E0CE0101960E94560DFC01808155
:10229000853439F077247394F4E46F1621F0712CAF
:1022A00002C072E0772E60E070E0CE0101960E94DD
:1022B000560DFC018081863411F463E0762E60E0D7
:1022C00070E0CE0101960E94560DFC01808187349A
:1022D00011F454E0752E60E070E0CE0101960E948A
:1022E000560DFC018081813411F445E0742E60E0CC
:1022F00070E0CE0101960E94560DFC01808182346F
:1023000011F436E0732E61E070E0CE0101960E9478
:10231000560DFC0160808D819E81892B41F06FED0F
:1023200071E089819A810E94601C892B51F09CEF99
:10233000970D80ED860D792EF7E08F9F700C11249C
:1023400002C02CE3722ECE0101960E949A0CF60177
:10235000EA0DFB1D77A220A622E0A20EB11CCE0141
:1023600007960E949A0CCE010D960E949A0CF9CE07
:102370008701000F111FF801EC59FC4FB4A2A3A272
:10238000612C712C8F014F0133E2830E911CF401FB
:102390008081918168167906F8F45601A60CB71C65
:1023A000F50167A170E080E090E04AE00E94270E0E
:1023B00082EE91E00E94150EF50160A570E080E0CC
:1023C00090E04AE00E94270E8DED91E00E94150EEC
:1023D000F2E06F0E711CDBCFCE0143960E949A0C87
:1023E000832D0E940C0DF801838994890E94680E48
:1023F000832D0E94A10EF701EE0FFF1FE859FC4F3D
:1024000080810E946D0FF701EC59FC4F82850E947C
:102410006D0F68960FB6F894DEBF0FBECDBFDF918B
:10242000CF911F910F91FF90EF90DF90CF90BF90D1
:10243000AF909F908F907F906F905F904F903F9064
:102440002F900895EF92FF920F931F93CF93DF93F6
:102450008C019091500381E0890F80935003E82E06
:10246000F12C2BE0829FC00111240E94501AEC0134
:10247000FC01A70181E0E114F10481F011821082D6
:102480001282138214821582168217821086118698
:1024900082873B9661E0E61AF108EDCF90E041506B
:1024A00051098BE0292F30E0E0914E03F0914F036A
:1024B0002417350784F46BE0969F90011124DE0108
:1024C000A20FB31FE20FF31F282F01900D922A9540
:1024D000E1F79F5FE7CF309719F0CF010E94E51A2F
:1024E000D0934F03C0934E03809150039BE0899F8C
:1024F000C00DD11D11242B971983088348E250E0A9
:1025000060E070E04A835B836C837D834E835F83EE
:102510006887798791E09A87009157031091580353
:102520002091590330915A030150110921093109B1
:10253000083211052105310558F040935703509397
:1025400058036093590370935A03815080935B033F
:10255000DF91CF911F910F91FF90EF9008958BE73E
:1025600093E0892B41F081E893E00E949A0C8BE77D
:1025700093E00E949A0C8CE694E00E949A0C82E709
:1025800094E00C949A0CCF93DF93CDB7DEB76597A8
:102590000FB6F894DEBF0FBECDBF789484B58260CD
:1025A00084BD84B5816084BD85B5826085BD85B5F7
:1025B000816085BD80916E00816080936E00109275
:1025C00081008091810082608093810080918100F0
:1025D0008160809381008091800081608093800081
:1025E0008091B10084608093B1008091B0008160DF
:1025F0008093B00080917A00846080937A0080910B
:102600007A00826080937A0080917A008160809362
:102610007A0080917A00806880937A001092C100DD
:10262000E091B502F091B60212E01083E091B102A0
:10263000F091B2021082E091B302F091B4028FECFB
:1026400080831092BD02E091B902F091BA0286E057
:102650008083E091B702F091B8028081806180832D
:10266000E091B702F091B802808188608083E091A8
:10267000B702F091B802808180688083E091B70250
:10268000F091B80280818F7D80838EE591E00E9479
:10269000150E8BE691E00E94150EF8941092B00092
:1026A0001092B100109270001093B1001092B2001D
:1026B00081E08093700010925003109252031092A8
:1026C0005103109253031092540310925503109229
:1026D0005603109257031092580310925903109208
:1026E0005A0310925B0387E592E00E9422128DE26A
:1026F00092E00E94221230E04BE0D42E432F50E0B3
:102700008091500390E00197481759070CF046C09C
:10271000FBE03F9F8001112421E0809150032817A6
:10272000D8F580914E0390914F03DC01A00FB11FAB
:1027300012964D915D916D917C911597EBE02E9FD6
:10274000800D911D1124FC0182809380A480B580AE
:1027500084169506A606B706E8F4ED90FC9011974E
:1027600016968D909D90AD90BC9019971A96CC902E
:102770001A977D2C01900D927A94E1F7FC01F18279
:10278000E082428353836483758386829782A08626
:10279000B186C2862F5FC1CF3F5FB0CF78944091A2
:1027A0005703509158036091590370915A038091D7
:1027B000530390915403A0915503B0915603481BC5
:1027C000590B6A0B7B0BDB01CA0180959095A09594
:1027D000B0958F779927880F991F90935203809314
:1027E0005103403851056105710518F01092B2008F
:1027F00002C08093B20083E390E00E94501A8C01E3
:102800000E9471081093A4020093A30283E390E056
:102810000E94501A8C010E9471081093A20200932A
:10282000A102E090A302F090A40281E190E0F70100
:10283000928B818B82E190E0948B838B83E190E09B
:10284000968B858B84E190E0908F878B85E190E07B
:10285000928F818F85E091E0958F848F8FE190E05A
:10286000F801928B818B80E290E0948B838B81E2E4
:1028700090E0968B858B82E290E0908F878B83E24D
:1028800090E0928F818F80E091E0958F848F82E03D
:10289000F701868F85E0878F98E0D92ED0A289E056
:1028A00081A361E082E00E94DA0261E0F701878D96
:1028B0000E94DA0261E0F70180A10E94DA0262E080
:1028C000F70181A10E94DA0260E0F70180A10E9475
:1028D000AA0284E0F801868F87E0878FD0A28BE080
:1028E00081A361E084E00E94DA0261E0F801878D53
:1028F0000E94DA0261E0F80180A10E94DA0262E03F
:10290000F80181A10E94DA0260E0F80180A10E9432
:10291000AA028AE090E0F70195A384A38EEC9FEFD2
:1029200097A386A382EE9FEFF80195A384A38EE17F
:1029300090E097A386A381E490E09093560480935F
:10294000550486EE90E090935404809353041A82C9
:1029500019821C821B821E821D8262E774E0CE01F6
:1029600001960E94830C61E0CE0101960E946F10D7
:10297000CE0101960E949A0C1A8219821C821B8237
:102980001E821D826CE674E0CE0101960E94830CCB
:1029900060E0CE0101960E946F10CE0101960E9468
:1029A0009A0C8091A3029091A40290936503809366
:1029B00064038091A1029091A20290936703809397
:1029C00066030E9443088091A3029091A4020E9492
:1029D000430864EF71E080E090E00E9416030091EC
:1029E000A3021091A40280EC9BEFA2E0B0E0F801FA
:1029F00080839183A283B38384839583A683B783E3
:102A000061E0C8010E94F007F80181A10E948102E3
:102A1000892BD1F780EB9EE0A0E0B0E0F801808345
:102A20009183A283B38384839583A683B783009124
:102A3000A1021091A202F80180839183A283B38343
:102A400084839583A683B78360E3C8010E94F0075F
:102A5000F80181A10E948102892BD1F780E091ECDD
:102A6000A2E0B0E0F80180839183A283B3838483E2
:102A70009583A683B78387E0C82ED12C0091640389
:102A800010916503F80140815181628173818481D5
:102A90009581A681B781481759076A077B07D9F541
:102AA000E0916603F09167034081518162817381F7
:102AB00084819581A681B781481759076A077B07EA
:102AC00051F5C8010E94A60760916E03F801818943
:102AD000861721F180916403909165030E94F007AD
:102AE000109272030091660310916703C8010E945F
:102AF000A60760916F03F8018189861799F080918C
:102B00006603909167030E94F00710927203809110
:102B1000720381110BC00E94060CB0CF81E080933C
:102B20007203E0CF81E080937203F1CF80E00E94D6
:102B3000AE0D81E00E94AE0D80917003811104C042
:102B400080917103882389F064E670E080E090E072
:102B50000E94160380E00E94800F81E00E94800F97
:102B60001092700310927103D6CF0091530410910C
:102B700054048091570481110DC00E94500360934A
:102B80005A0470935B0480935C0490935D0481E02D
:102B9000809357040E94500320915A0430915B04A3
:102BA000621B730B70935904609358040617170740
:102BB00008F0B1CF109257048EE691E00E94150EF6
:102BC0000091660310916703C8010E94A607F801EF
:102BD000E188F2886DE671E0CE0140960E949F0C7C
:102BE000FF24F4E0EF0EF11CC701B6010E94E119C9
:102BF0008B016115710519F461E771E005C0613061
:102C0000710539F463E771E0CE0140960E946C0CC7
:102C100010C06230710539F460EE71E0CE0140966B
:102C20000E946C0C0CC06330710519F465E771E00B
:102C300011C00430110519F467E771E00BC00530CD
:102C4000110519F469E771E005C00630110531F48A
:102C50006BE771E0CE0140960E946C0C1B861A86D1
:102C60001D861C861F861E86C701B6010E94E119BB
:102C70004AE0BE016F5F7F4F0E944217BE016F5F47
:102C80007F4FCE010A960E946C0C8E859F85EA8448
:102C9000FB840C891D89E114F104B1F00097A1F0C7
:102CA000080F191FB801CE0140960E94100C88230E
:102CB00059F0288939898C899D89B701820F931F22
:102CC0000E94691C1D8B0C8BCE010A960E949A0CE7
:102CD0004C895D896889798985EA92E00E940A0BAE
:102CE0008BE691E00E94150ECE0140960E949A0C50
:102CF00080E00E94B80F81E00E94B80F0CCFE5EA97
:102D0000F2E01382128288EE93E0A0E0B0E08483C8
:102D10009583A683B7832EE331E03183208325ECAE
:102D200030E03587248724EC30E03787268720EC95
:102D300030E0318B208B21EC30E0338B228B22EC86
:102D400030E0358B248B26EC30E0378B268B118ED0
:102D5000128E138E148EE2E4F3E0138212828483C7
:102D60009583A683B78380E591E091838083EEE429
:102D7000F3E0128214821382158216821782108663
:102D80001186128613861486158616861786108A73
:102D9000118A128A138A148A158A6DE771E082E714
:102DA00094E00E949F0C65EB71E08CE694E00E9439
:102DB0009F0CE4E6F3E01486158681E08687108A8E
:102DC0001786128A118A148A138A168A158A6DE662
:102DD00071E08BE793E00E949F0C6DE671E081E863
:102DE00093E00E949F0C84EF91E0909354048093B1
:102DF000530488E790E09093560480935504109212
:102E00005E04109265041092570408951F93FC010C
:102E100099278827BC01E89411911032E9F3193001
:102E200010F01E30C8F31B3251F01D3249F4689483
:102E300006C00E942D17610F711D811D911D1191FA
:102E400010531A30B0F33EF49095809570956195CB
:102E50007F4F8F4F9F4F1F910895592F482F372F26
:102E6000262F660F771F881F991F660F771F881FF1
:102E7000991F620F731F841F951F660F771F881F8E
:102E8000991F0895BB27FB015527AA27880F991F73
:102E9000AA1FA41710F0A41B83955051B9F7A05D89
:102EA000AA3308F0A95DA193009779F7B111B19306
:102EB0001192CB010C945C17DC01FC01672F71911E
:102EC0007723E1F7329704C07C916D937083629110
:102ED000AE17BF07C8F308950E94AE1708F481E04B
:102EE0000895E89409C097FB3EF4909580957095FD
:102EF00061957F4F8F4F9F4F9923A9F0F92F96E946
:102F0000BB279395F695879577956795B795F111BA
:102F1000F8CFFAF4BB0F11F460FF1BC06F5F7F4F57
:102F20008F4F9F4F16C0882311F096E911C0772369
:102F300021F09EE8872F762F05C0662371F096E872
:102F4000862F70E060E02AF09A95660F771F881F41
:102F5000DAF7880F9695879597F90895990F0008E5
:102F6000550FAA0BE0E8FEEF16161706E807F9075B
:102F7000C0F012161306E407F50798F0621B730BF6
:102F8000840B950B39F40A2661F0232B242B252B77
:102F900021F408950A2609F4A140A6958FEF811D1A
:102FA000811D08950E94E5170C9456180E94481838
:102FB00038F00E944F1820F0952311F00C943F1820
:102FC0000C94451811240C948A180E94671870F309
:102FD000959FC1F3950F50E0551F629FF001729FBE
:102FE000BB27F00DB11D639FAA27F00DB11DAA1FCD
:102FF000649F6627B00DA11D661F829F2227B00D1A
:10300000A11D621F739FB00DA11D621F839FA00DA4
:10301000611D221F749F3327A00D611D231F849FF4
:10302000600D211D822F762F6A2F11249F5750404B
:103030009AF0F1F088234AF0EE0FFF1FBB1F661FC6
:10304000771F881F91505040A9F79E3F510580F08F
:103050000C943F180C948A185F3FE4F3983ED4F325
:10306000869577956795B795F795E7959F5FC1F733
:10307000FE2B880F911D9695879597F9089597F9DE
:103080009F6780E870E060E008959FEF80EC08950E
:1030900000240A9416161706180609060895002437
:1030A0000A9412161306140605060895092E0394B1
:1030B000000C11F4882352F0BB0F40F4BF2B11F425
:1030C00060FF04C06F5F7F4F8F4F9F4F089557FD84
:1030D0009058440F551F59F05F3F71F04795880F86
:1030E00097FB991F61F09F3F79F08795089512161D
:1030F00013061406551FF2CF4695F1DF08C01616C9
:1031000017061806991FF1CF869571056105089479
:103110000895E894BB2766277727CB0197F9089590
:103120002F923F924F925F926F927F928F929F92D7
:10313000AF92BF92CF92DF92EF92FF920F931F93C5
:10314000CF93DF93CDB7DEB7CA1BDB0B0FB6F89476
:10315000DEBF0FBECDBF09942A88398848885F84B6
:103160006E847D848C849B84AA84B984C884DF8027
:10317000EE80FD800C811B81AA81B981CE0FD11D0B
:103180000FB6F894DEBF0FBECDBFED0108955058C5
:10319000BB27AA270E94DF180C9456180E944818D3
:1031A00038F00E944F1820F039F49F3F19F426F4AC
:1031B0000C9445180EF4E095E7FB0C943F18E92FAA
:1031C0000E94671858F3BA176207730784079507B8
:1031D00020F079F4A6F50C9489180EF4E0950B2EE6
:1031E000BA2FA02D0B01B90190010C01CA01A00159
:1031F0001124FF27591B99F0593F50F4503E68F1B4
:103200001A16F040A22F232F342F4427585FF3CFF4
:10321000469537952795A795F0405395C9F77EF4C5
:103220001F16BA0B620B730B840BBAF09150A1F00E
:10323000FF0FBB1F661F771F881FC2F70EC0BA0F94
:10324000621F731F841F48F4879577956795B7951C
:10325000F7959E3F08F0B0CF9395880F08F0992717
:10326000EE0F9795879508950E9448190C9456186B
:103270000E944F1858F00E94481840F029F45F3F10
:1032800029F00C943F1851110C948A180C9445188D
:103290000E94671868F39923B1F3552391F3951BA6
:1032A000550BBB27AA2762177307840738F09F5F67
:1032B0005F4F220F331F441FAA1FA9F335D00E2ED4
:1032C0003AF0E0E832D091505040E695001CCAF741
:1032D0002BD0FE2F29D0660F771F881FBB1F261704
:1032E00037074807AB07B0E809F0BB0B802DBF01DB
:1032F000FF2793585F4F3AF09E3F510578F00C94AA
:103300003F180C948A185F3FE4F3983ED4F38695F7
:1033100077956795B795F7959F5FC9F7880F911DCA
:103320009695879597F90895E1E0660F771F881FB6
:10333000BB1F621773078407BA0720F0621B730B69
:10334000840BBA0BEE1F88F7E09508950E94AD1923
:103350006894B1110C948A1808950E946F1888F02F
:103360009F5798F0B92F9927B751B0F0E1F0660F49
:10337000771F881F991F1AF0BA95C9F714C0B1308A
:1033800091F00E948918B1E008950C948918672F74
:10339000782F8827B85F39F0B93FCCF386957795B9
:1033A0006795B395D9F73EF49095809570956195A2
:1033B0007F4F8F4F9F4F08950E94AE1708F48FEFF5
:1033C000089597FB072E16F4009407D077FD09D0D7
:1033D0000E94361A07FC05D03EF4909581959F4FC8
:1033E0000895709561957F4F0895A1E21A2EAA1B4A
:1033F000BB1BFD010DC0AA1FBB1FEE1FFF1FA217A5
:10340000B307E407F50720F0A21BB30BE40BF50BA1
:10341000661F771F881F991F1A9469F7609570952A
:10342000809590959B01AC01BD01CF010895052EBB
:1034300097FB1EF400940E942E1A57FD07D00E949D
:10344000F51907FC03D04EF40C942E1A50954095B4
:10345000309521953F4F4F4F5F4F08959095809540
:10346000709561957F4F8F4F9F4F0895AA1BBB1B8F
:1034700051E107C0AA1FBB1FA617B70710F0A61B74
:10348000B70B881F991F5A95A9F780959095BC0195
:10349000CD010895EE0FFF1F0590F491E02D0994E2
:1034A000CF93DF938230910510F482E090E0E091B9
:1034B0007B04F0917C0420E030E0C0E0D0E0309765
:1034C00011F14081518148175907C0F04817590739
:1034D00061F482819381209719F09B838A832BC0AA
:1034E00090937C0480937B0426C02115310519F04C
:1034F0004217530718F49A01BE01DF01EF01028061
:10350000F381E02DDCCF2115310509F1281B390BA2
:103510002430310590F412968D919C91139761158A
:10352000710521F0FB019383828304C090937C0496
:1035300080937B04FD01329644C0FD01E20FF31F2E
:1035400081939193225031092D933C933AC020915D
:10355000790430917A04232B41F420910C013091AD
:103560000D0130937A042093790420910A0130915F
:103570000B012115310541F42DB73EB740910E01E5
:1035800050910F01241B350BE0917904F0917A04DE
:10359000E217F307A0F42E1B3F0B2817390778F02A
:1035A000AC014E5F5F4F2417350748F04E0F5F1F89
:1035B00050937A04409379048193919302C0E0E0A0
:1035C000F0E0CF01DF91CF9108950F931F93CF9338
:1035D000DF93009709F48CC0FC01329713821282AA
:1035E00000917B0410917C040115110581F4208168
:1035F0003181820F931F2091790430917A0428172A
:10360000390779F5F0937A04E093790471C0D80111
:1036100040E050E0AE17BF0750F412962D913C9158
:103620001397AD012115310509F1D901F3CF9D01A2
:10363000DA013383228360817181860F971F82179D
:10364000930769F4EC0128813981260F371F2E5F1B
:103650003F4F318320838A819B8193838283452BD3
:1036600029F4F0937C04E0937B0442C01396FC930E
:10367000EE931297ED01499159919E01240F351F48
:10368000E217F30771F480819181840F951F0296F0
:1036900011969C938E938281938113969C938E9323
:1036A0001297E0E0F0E0D80112968D919C9113976B
:1036B000009719F0F8018C01F6CF8D919C9198013B
:1036C0002E5F3F4F820F931F2091790430917A042F
:1036D0002817390769F4309729F410927C04109266
:1036E0007B0402C01382128210937A04009379043F
:1036F000DF91CF911F910F910895A0E0B0E0E3E832
:10370000FBE10C949418EC01009721F4CB010E948A
:10371000501AB8C0FC01E60FF71F9C012250310976
:10372000E217F30708F4ACC0D9010D911C91119771
:1037300006171707B0F00530110508F49FC0C8013F
:1037400004978617970708F499C002501109061BC1
:10375000170B019311936D937C93CF010E94E51A8F
:103760008DC05B01A01AB10A4C01800E911EA09180
:103770007B04B0917C0440E050E0E12CF12C1097E8
:1037800009F44AC0A815B905D1F56D907C90119740
:10379000630182E0C80ED11CCA14DB0480F1A301CE
:1037A0004A195B096A0182E0C80ED11C1296BC90CE
:1037B00012971396AC91B5E0CB16D10440F0B282CB
:1037C000A38351834083D9016D937C930AC00E5F1C
:1037D0001F4FC301800F911FF90191838083EB2D4F
:1037E000FA2FE114F10431F0D7011396FC93EE9314
:1037F000129744C0F0937C04E0937B043FC08D910A
:103800009C9111974817590708F4AC017D01129655
:103810000D90BC91A02DB3CF8091790490917A0442
:1038200088159905E1F446175707C8F480910A01F5
:1038300090910B01009741F48DB79EB740910E0116
:1038400050910F01841B950BE817F907C8F4F0930A
:103850007A04E0937904F901718360830FC0CB018E
:103860000E94501A7C01009759F0A801BE010E94E5
:103870004C1CCE010E94E51AC70104C0CE0102C053
:1038800080E090E0CDB7DEB7EEE00C94B01881E0B8
:1038900090E0F8940C94701CFB01DC0102C00190D4
:1038A0000D9241505040D8F70895FC018191861740
:1038B00021F08823D9F7992708953197CF010895EA
:1038C000FB01DC018D91019080190110D9F3990B56
:1038D0000895FB01DC0101900D920020E1F70895AD
:1038E00010E0C2E6D0E004C0FE010E944A1A219610
:0A38F000C336D107C9F7F894FFCFE3
:1038FA000403020100090807060500007D04800090
:10390A001F002000210022002300000000080004FC
:10391A00000C0002000E0006000A0001000F00055C
:10392A000009000D0003000B0007000000009D0BBA
:10393A000A0B350BE40B660B440B580B0000000016
:10394A00730143012A0217013B012701180153653C
:10395A007269616C20626567696E000D0A00503AEF
:10396A000043004400460047004100420052452DF2
:10397A00342052452052452052452D312047342DBE
:10398A00312043352044352044352D322045352019
:10399A0045352D382052452D312043352D312044CF
:1039AA00352045350052452D31362043332D3220FE
:1039BA0047332043342044342045342052452D32A5
:1039CA002052452D3400706F3A006B3A00200052A5
:0439DA0045002D0077
:00000001FF
