:100000000C9463000C948B000C948B000C948B006C
:100010000C948B000C948B000C948B000C948B0034
:100020000C948B000C94EA050C948B000C948B00C0
:100030000C948B000C948B000C948B000C948B0014
:100040000C9476040C948B000C9444040C941E04C1
:100050000C948B000C948B000C948B000C948B00F4
:100060000C94C0040C948B000000000024002700B6
:100070002A0000000000250028002B0000000000DE
:1000800023002600290004040404040404040202DA
:100090000202020203030303030301020408102007
:1000A0004080010204081020010204081020000012
:1000B0000008000201000003040700000000000027
:1000C00000006A070F0A11241FBECFEFD8E0DEBF81
:1000D000CDBF24E0A6EEB1E001C01D92A732B20769
:1000E000E1F711E0A0E0B1E0E2EDF8E102C0059037
:1000F0000D92A63EB107D9F710E0C2E6D0E004C0E9
:100100002197FE010E945A0AC136D107C9F70E9401
:1001100004080C945C0C0C940000CF92DF92EF92D8
:10012000FF920F931F93CF93DF936C017A018B01A2
:10013000C0E0D0E0CE15DF0581F0D8016D918D01D2
:10014000D601ED91FC910190F081E02DC601099559
:10015000892B11F02196EECF7E01C701DF91CF915F
:100160001F910F91FF90EF90DF90CF900895E09155
:100170005C02F0915D0240815181628173818481D2
:100180009581A681B781481759076A077B07C1F097
:1001900084E089B9E0915C02F0915D028085082ECF
:1001A000000C990BAA0BBB0B4081518162817381BA
:1001B000840F951FA61FB71F80839183A283B383EB
:1001C0000895E0915A02F0915B0240815181628171
:1001D000738184819581A681B781481759076A0781
:1001E0007B07C1F080E189B9E0915A02F0915B028E
:1001F0008085082E000C990BAA0BBB0B4081518106
:1002000062817381840F951FA61FB71F808391831E
:10021000A283B3830895FC01538D448D252F30E0D4
:10022000842F90E0821B930B541710F0CF96089503
:1002300001970895FC01918D828D981761F0828D50
:10024000DF01A80FB11D5D968C91928D9F5F9F730A
:10025000928F90E008958FEF9FEF0895FC01918DAC
:10026000828D981731F0828DE80FF11D858D90E019
:1002700008958FEF9FEF0895FC01918D228D892FB6
:1002800090E0805C9F4F821B91098F73992708959E
:100290008EE592E00E943C0121E0892B09F420E0E8
:1002A000822F0895FC01848DDF01A80FB11DA35A90
:1002B000BF4F2C91848D90E001968F739927848F86
:1002C000A689B7892C93A089B1898C9183708064A9
:1002D0008C93938D848D981306C00288F389E02D4A
:1002E00080818F7D80830895EF92FF920F931F93FB
:1002F000CF93DF93EC0181E0888F9B8D8C8D9813D9
:1003000005C0E889F989808185FD26C0F62E0B8D10
:1003100010E00F5F1F4F0F731127E02E8C8DE81236
:100320000CC00FB607FCFACFE889F989808185FFF8
:10033000F5CFCE010E945201F1CF8B8DFE01E80F67
:10034000F11DE35AFF4FF0829FB7F8940B8FEA89B3
:10035000FB89808180620AC09FB7F894EE89FF898B
:100360006083E889F98980818370806480839FBF7E
:1003700081E090E0DF91CF911F910F91FF90EF907E
:100380000895CF93DF93EC01888D8823C9F0EA8923
:10039000FB89808185FD05C0A889B9898C9186FD7E
:1003A0000FC00FB607FCF5CF808185FFF2CFA8897B
:1003B000B9898C9185FFEDCFCE010E945201E7CF24
:1003C000DF91CF91089580E090E0892B29F00E9481
:1003D000480181110C9400000895833081F028F4C5
:1003E000813099F08230A1F008958730A9F08830EB
:1003F000B9F08430D1F4809180008F7D03C080916A
:1004000080008F7780938000089584B58F7702C035
:1004100084B58F7D84BD08958091B0008F7703C02F
:100420008091B0008F7D8093B00008951F93CF938B
:10043000DF93282F30E0F901E255FF4F8491F90155
:10044000E656FF4FD491F901EA57FF4FC491CC23F0
:10045000C1F0162F81110E94ED01EC2FF0E0EE0F9C
:10046000FF1FEE58FF4FA591B4919FB7F89411115B
:1004700004C08C91D095D82302C0EC91DE2BDC9384
:100480009FBFDF91CF911F910895CF93DF9390E0AD
:10049000FC01E656FF4F2491FC01EA57FF4F84917F
:1004A000882361F190E0880F991FFC01E859FF4F04
:1004B000C591D491FC01EE58FF4FA591B491611103
:1004C00009C09FB7F8948881209582238883EC9196
:1004D0002E230BC0623061F49FB7F8948881322FCD
:1004E000309583238883EC912E2B2C939FBF06C0DD
:1004F0008FB7F894E8812E2B28838FBFDF91CF919F
:10050000089585ED8093BC008091BC0084FDFCCFF4
:1005100010922B02089540910702262F30E0240FFD
:10052000311D21323105DCF420912B022430C9F435
:10053000FC0180E090E0861758F430910702219189
:10054000DC01A951BE4FA30FB11D2C930196F3CF2F
:1005500080910702680F6093070280E0089581E0B0
:10056000089582E0089508958FEF9FEF08958FEF2B
:100570009FEF08958091E60190E091958195910912
:100580000895CF93DF93CB01EA01642F0E948B0281
:10059000CE01DF91CF910895CF93DF931F92CDB716
:1005A000DEB7698361E0CE0101960E948B0281E093
:1005B00090E00F90DF91CF910895089580E090E052
:1005C0000895CF93DF93009779F0FC01019000200C
:1005D000E9F73197AF01481B590BBC018EE592E05A
:1005E0000E948D00EC0102C0C0E0D0E042E050E08B
:1005F0006EE371E08EE592E00E948D008C0F9D1FEE
:10060000DF91CF910895CF93DF93EC011882198287
:100610001A821B821C821D821E821F8281E08887B3
:1006200019861A861B861C861D868E87188A1F8649
:100630008AE0E0E1F1E0DE01519601900D928A95A9
:10064000E1F71B8E86E990E099A788A788E090E003
:100650000E94600A9CA78BA71DA640E050E06CECAE
:1006600072E4FC0140835183628373834CE157EC55
:1006700061E170E444835583668377838BEF92E076
:100680009FA78EA718AA1AAA19AA1BAA1CAA80E0BB
:1006900090E0ACEBB1E48DAB9EABAFABB8AFDF910C
:1006A000CF910895EF92FF920F931F93CF93DF9313
:1006B0008C01809109038F5F80930903E82EF12C50
:1006C0002BE0829FC00111240E94600AEC01FC0112
:1006D000A70181E091E0E91AF10820F490E041508F
:1006E00051090DC011821082128213821482158268
:1006F000168217821086118682873B96EBCF292FB0
:1007000030E0E0910703F09108032417350784F4E3
:100710008BE0989F90011124DE01A20FB31FE20F1E
:10072000F31F8BE001900D928A95E1F79F5FE7CF71
:10073000309719F0CF010E94F80AD0930803C093B4
:100740000703809109039BE0899FC00DD11D1124EF
:100750002B971983088344E650E060E070E04A83F9
:100760005B836C837D834E835F836887798791E0A9
:100770009A87009110031091110320911203309178
:10078000130301501109210931090436110521050E
:10079000310558F0409310035093110360931203F6
:1007A00070931303815080931403DF91CF911F91B5
:1007B0000F91FF90EF900895EF92FF920F931F9388
:1007C000CF93DF93EC017B018A01888199810097A7
:1007D00029F02A813B8124173507F8F4B8016F5FAF
:1007E0007F4F0E94810B009759F0998388831B8368
:1007F0000A832C813D81232B81F4FC0110820DC0E2
:1008000088819981009711F00E94F80A1982188254
:100810001D821C821B821A8207C01D830C83B701B4
:10082000888199810E94550CCE01DF91CF911F9153
:100830000F91FF90EF9008950E94470C1F920F9226
:100840000FB60F9211242F933F934F935F936F93A3
:100850007F938F939F93AF93BF93EF93FF938EE517
:1008600092E00E945201FF91EF91BF91AF919F9151
:100870008F917F916F915F914F913F912F910F9049
:100880000FBE0F901F9018951F920F920FB60F92E8
:1008900011242F938F939F93EF93FF93E0916E0218
:1008A000F0916F028081E0917402F091750282FDF7
:1008B00012C09081809177028F5F8F7320917802B0
:1008C000821751F0E0917702F0E0E25AFD4F958FE8
:1008D0008093770201C08081FF91EF919F918F916A
:1008E0002F910F900FBE0F901F9018951F920F928F
:1008F0000FB60F9211242F933F938F939F93AF9333
:10090000BF938091560290915702A0915802B091E6
:1009100059023091550223E0230F2D3720F4019620
:10092000A11DB11D05C026E8230F0296A11DB11D12
:10093000209355028093560290935702A093580239
:10094000B09359028091510290915202A0915302AA
:10095000B09154020196A11DB11D80935102909354
:100960005202A0935302B0935402BF91AF919F9152
:100970008F913F912F910F900FBE0F901F90189560
:100980001F920F920FB60F9211242F933F934F9304
:100990005F936F937F938F939F93AF93BF93EF93E7
:1009A000FF938091B900887F803609F49CC068F578
:1009B000883209F45BC090F4803109F454C038F4F3
:1009C000882309F4F2C0883009F44DC0F2C08831A0
:1009D00009F44CC0803209F45DC0EBC0803409F4E6
:1009E00068C048F4803309F455C0883309F0E1C089
:1009F00080932A02D4C0803509F44FC0883509F4A9
:100A00005DC0883409F0D5C0D2C0883909F4C3C0AC
:100A1000A8F4883709F467C038F4883609F463C04D
:100A2000803709F460C0C5C0883809F4B4C0803983
:100A300009F45FC0803809F0BCC05BC0803B09F49A
:100A400084C038F4803A09F466C0883A09F47DC05D
:100A5000B0C0803C09F4A3C0883C09F4A0C0883B26
:100A600009F486C0A6C08091500210C090914F0238
:100A700080914E02981770F5E0914F0281E08E0F41
:100A800080934F02F0E0E25DFD4F80818093BB00D8
:100A900085EC82C080932A028AC0E0914F0281E0F7
:100AA0008E0F80934F028091BB00F0E0E25DFD4F1E
:100AB000808390914F0280914E026AC0E0914F0274
:100AC00081E08E0F80934F028091BB00F0E0E25DE9
:100AD000FD4F808380912D02811169C081E0809358
:100AE0002C0284EA5DC083E080932B0210922902DD
:100AF000CFCF80912902803208F04DC0E0912902C9
:100B000081E08E0F809329028091BB00F0E0E75FC7
:100B1000FD4F8083BDCF85EC8093BC0010922B02EB
:100B200080912902803230F4E0912902F0E0E75F01
:100B3000FD4F10826091290270E089E092E0E0E0D0
:100B4000F0E009951092290234C084E080932B02D2
:100B50001092080210920702E0E0F0E009958091FF
:100B60000702811105C081E0809307021092E7011E
:100B7000E091080281E08E0F80930802F0E0E951D5
:100B8000FE4F80818093BB00909108028091070204
:100B9000981708F47DCF85E88093BC000AC085ECE7
:100BA0008093BC0010922B0204C010922A020E9473
:100BB0008102FF91EF91BF91AF919F918F917F91B2
:100BC0006F915F914F913F912F910F900FBE0F90BA
:100BD0001F9018951F920F920FB60F921124CF926B
:100BE000DF92EF92FF920F931F932F933F934F93B8
:100BF0005F936F937F938F939F93AF93BF93CF93A5
:100C0000DF93EF93FF932FB7F89480915602909162
:100C10005702A0915802B09159022FBF809315033B
:100C200090931603A0931703B093180380910C03BD
:100C300090910D03A0910E03B0910F0380589F4F28
:100C4000AF4FBF4F80930C0390930D03A0930E03FF
:100C5000B0930F0340911003509111036091120360
:100C60007091130384179507A607B707D0F4481BA4
:100C7000590B6A0B7B0B9A012F773327220F331FF7
:100C80008FEF90E0821B930B90930B0380930A03EA
:100C9000403851056105710510F082E000C18E5F9A
:100CA000FEC010920C0310920D0310920E031092CE
:100CB0000F0310E03091090380910703909108031E
:100CC000131708F046C02BE0129FE0011124FC012D
:100CD000EC0FFD1F22852223D1F1468157816085CB
:100CE000718520911403DC013BE0239FA00DB11D11
:100CF000112416968D919D910D90BC91A02D4817B1
:100D000059076A077B0799F40190F081E02D099556
:100D10008091070390910803C80FD91F8A819B8196
:100D2000AC81BD818E839F83A887B98710C08091D5
:100D3000100390911103A0911203B0911303481B6B
:100D4000590B6A0B7B0B46835783608771871F5F44
:100D5000B1CF10921403FC0121E02317F8F4458968
:100D60004423C9F040911403DC015BE0459FA00DD2
:100D7000B11D1124C188D288E388F48816964D915C
:100D80005D916D917C911997C416D506E606F7061C
:100D900010F4209314032F5F3B96DFCF20911403B0
:100DA000FC013BE0239FE00DF11D1124868197811A
:100DB000A085B1858093100390931103A093120333
:100DC000B093130340910C0350910D0360910E03F7
:100DD00070910F03841B950BA60BB70B8F77992788
:100DE000880F991F2FEF30E0A901481B590B509332
:100DF0000B0340930A032FB7F89480915602909109
:100E00005702A0915802B09159022FBF409115038B
:100E1000509116036091170370911803841B950B72
:100E2000A60BB70B8093190390931A03A0931B038F
:100E3000B0931C0340911003509111036091120371
:100E40007091130300910C0310910D0320910E0378
:100E500030910F03401B510B620B730B403851054F
:100E60006105710530F04696A11DB11D880F991FCF
:100E70000AC020910A0330910B03245D3F4F880F75
:100E8000991F820F931F90930B0380930A03809105
:100E90000A0390910B038F3F910508F08EEF80932A
:100EA000B200FF91EF91DF91CF91BF91AF919F91F0
:100EB0008F917F916F915F914F913F912F911F91F2
:100EC0000F91FF90EF90DF90CF900F900FBE0F909B
:100ED0001F901895CF93DF93EEE5F2E01382128214
:100EE00088EE93E0A0E0B0E084839583A683B78387
:100EF0002EE131E03183208325EC30E035872487F3
:100F000024EC30E03787268720EC30E0318B208BD3
:100F100021EC30E0338B228B22EC30E0358B248BBC
:100F200026EC30E0378B268B118E128E138E148EAA
:100F3000EBEFF2E01382128284839583A683B7835A
:100F400080E391E091838083E7E0F3E012821482F2
:100F500013821582168217821086118612861386D6
:100F60001486158616861786108A118A128A138AA5
:100F7000148A158AEDE1F4E0118210821382128244
:100F80001582148241E850E061E471E0CF010E94D3
:100F9000DC03CDE1D3E01C861D8681E08E871F86B1
:100FA000188A198A1A8A1C8A1B8A1E8A1D8A188E18
:100FB0001F8A40E050E060E471E080E393E00E942B
:100FC000DC031A8E198E1C8E1B8E1E8E1D8E40E029
:100FD00050E060E471E086E393E00E94DC0384EF7C
:100FE00091E0909305048093040488E790E0909347
:100FF00007048093060410920F04109216041092B6
:101000000804DF91CF910895789484B5826084BDFF
:1010100084B5816084BD85B5826085BD85B58160FC
:1010200085BD80916E00816080936E00109281007A
:101030008091810082608093810080918100816035
:1010400080938100809180008160809380008091F6
:10105000B10084608093B1008091B0008160809382
:10106000B00080917A00846080937A0080917A0049
:10107000826080937A0080917A00816080937A0008
:1010800080917A00806880937A001092C100E0918C
:101090006E02F0916F0232E0D32ED082E0916A02AC
:1010A000F0916B021082E0916C02F0916D028FEC76
:1010B000808310927602E0917202F091730286E0D2
:1010C0008083E0917002F091710280818061808361
:1010D000E0917002F0917102808188608083E091DC
:1010E0007002F0917102808180688083E0917002CB
:1010F000F091710280818F7D808383EC91E00E946A
:10110000E10289E390E00E94600AEC010E9403037F
:10111000D0935D02C0935C0289E390E00E94600A74
:10112000EC010E940303D0935B02C0935A0200912A
:101130005C0210915D0280E190E0F801928B818B5E
:1011400081E190E0948B838B82E190E0968B858B9C
:1011500083E190E0908F878B84E190E0928F818F84
:1011600085E091E0958F848F4EE1E42EF12CFA8A90
:10117000E98A8FE190E09C8B8B8B80E290E09E8BE4
:101180008D8B81E290E0988F8F8B82E290E09A8F36
:10119000898F80E091E09D8F8C8FD68E85E0878F40
:1011A00058E0C52EC0A289E081A361E082E00E94E0
:1011B000450261E0F801878D0E94450261E0F80177
:1011C00080A10E94450262E0F80181A10E944502CF
:1011D00060E0F80180A10E94160284E08E8F87E013
:1011E0008F8FC8A28BE089A361E084E00E94450252
:1011F00061E08F8D0E94450261E088A10E94450256
:1012000062E089A10E94450260E088A10E94160266
:10121000F801F5A2E4A2FDA2ECA2F8941092B000AD
:101220001092B10010927000D092B1001092B200F2
:1012300081E0809370001092090310920B031092CA
:101240000A0310920C0310920D0310920E031092D9
:101250000F031092100310921103109212031092B8
:1012600013031092140387EB90E00E94520381EE67
:1012700090E00E94520320E0422F50E08091090349
:1012800090E00197481759070CF045C0FBE02F9FED
:101290008001112481E0909109038917D0F5C09154
:1012A0000703D0910803DE01A00FB11F12964D91E4
:1012B0005D916D917C9115979BE0899FC00DD11D2B
:1012C0001124CA80DB80EC80FD80C416D506E606BA
:1012D000F706E8F4ED90FC90119716968D909D908E
:1012E000AD90BC9019971A963C911A979BE0FE011D
:1012F00001900D929A95E1F7F982E8824A835B8327
:101300006C837D838E829F82A886B9863A878F5FA1
:10131000C2CF2F5FB1CF7894409110035091110349
:10132000609112037091130380910C0390910D034F
:10133000A0910E03B0910F03481B590B6A0B7B0B56
:10134000DB01CA0180959095A095B0958F7799277C
:10135000880F991F90930B0380930A03403851051F
:101360006105710518F01092B20002C08093B200BE
:1013700080ED91E00E94E102C0915A02D0915B029F
:10138000188219821A821B8288E299E5A1E0B0E0F6
:101390008C839D83AE83BF8389879A87AB87BC8705
:1013A0008D85882311F08FEF01C081E0888761E08F
:1013B000813009F460E08F8D0E94160229A130E08F
:1013C000F901E255FF4F8491F901E656FF4F049170
:1013D000F901EA57FF4F1491112371F081110E9416
:1013E000ED01E12FF0E0EE0FFF1FE458FF4FA59154
:1013F000B491EC91E02311F78FEF9FEFA0E0B0E004
:1014000088839983AA83BB838C839D83AE83BF83A8
:101410008AED91E00E94E1020E94E301FDCFCF93AB
:10142000DF93CDE1D3E0898D9A8D0E94F80A8B89F4
:101430009C890E94F80A80911D0490911E04DF91FE
:10144000CF910C94F80A2F923F924F925F926F9235
:101450007F928F929F92AF92BF92CF92DF92EF9244
:10146000FF920F931F93CF93DF93CDB7DEB7CA1BC5
:10147000DB0B0FB6F894DEBF0FBECDBF09942A88F0
:10148000398848885F846E847D848C849B84AA8498
:10149000B984C884DF80EE80FD800C811B81AA8125
:1014A000B981CE0FD11D0FB6F894DEBF0FBECDBFF0
:1014B000ED010895EE0FFF1F0590F491E02D0994C2
:1014C0000F931F93CF93DF938230910510F482E046
:1014D00090E0E0912504F091260420E030E0A0E0C7
:1014E000B0E0309719F14081518102811381481792
:1014F0005907C8F08417950769F4109731F01296D0
:101500000C93129713961C9327C0009325041093F5
:10151000260422C02115310519F04217530718F48B
:101520009A01BD01EF01DF01F801DBCF2115310583
:10153000F9F0281B390B2430310580F48A819B8116
:101540006115710521F0FB019383828304C09093A0
:10155000260480932504FE01329644C0FE01E20F6A
:10156000F31F8193919322503109398328833AC024
:101570002091230430912404232B41F420910C0169
:1015800030910D01309324042093230420910A010B
:1015900030910B012115310541F42DB73EB7409133
:1015A0000E0150910F01241B350BE0912304F091A3
:1015B0002404E217F307A0F42E1B3F0B281739076A
:1015C00078F0AC014E5F5F4F2417350748F04E0F9F
:1015D0005F1F50932404409323048193919302C08E
:1015E000E0E0F0E0CF01DF91CF911F910F910895DE
:1015F000CF93DF93009709F481C0FC0132971382E7
:101600001282A0912504B0912604109781F42081C4
:101610003181820F931F20912304309124042817D5
:10162000390751F5F0932404E093230467C0ED01DA
:1016300020E030E0CE17DF0740F44A815B819E0155
:1016400041155105F1F0EA01F5CFD383C283408102
:101650005181840F951FC817D90759F48881998142
:10166000840F951F0296918380838A819B81938347
:1016700082832115310529F4F0932604E093250493
:101680003DC0E901FB83EA8349915991C40FD51FFD
:10169000EC17FD0761F480819181840F951F0296FC
:1016A000E90199838883828193819B838A83E0E027
:1016B000F0E012968D919C911397009719F0FD011F
:1016C000DC01F7CF8D919C9111979D012E5F3F4FCB
:1016D000820F931F20912304309124042817390787
:1016E00069F4309729F4109226041092250402C060
:1016F00013821282B0932404A0932304DF91CF912C
:101700000895A0E0B0E0E7E8FBE00C94270AEC01C4
:10171000009721F4CB010E94600AB4C0FC01E60FDF
:10172000F71F9C0122503109E217F30708F4A8C003
:10173000D9010D911C91119706171707B0F00530CC
:10174000110508F49BC0C80104978617970708F491
:1017500095C002501109061B170B019311936D934D
:101760007C93CF010E94F80A89C05B01A01AB10ADC
:101770004C01800E911EA0912504B0912604612C8D
:10178000712CE12CF12C109709F446C08D919C919D
:101790001197A815B905B1F56C0142E0C40ED11C32
:1017A000CA14DB0478F14C018A189B08640142E0FA
:1017B000C40ED11C1296BC9012971396AC91B5E052
:1017C000CB16D10440F0B282A38391828082D901EA
:1017D0006D937C9309C00E5F1F4F800F911FF9011D
:1017E00091838083EB2DFA2FE114F10431F0D701BE
:1017F0001396FC93EE93129741C0F0932604E09366
:1018000025043CC06816790608F43C017D01129657
:101810000D90BC91A02DB7CF80912304909124040A
:1018200088169906E1F466167706C8F480910A01D5
:1018300090910B01009741F48DB79EB740910E0136
:1018400050910F01841B950BE817F907C8F4F0932A
:101850002404E0932304F901718360830FC0CB015A
:101860000E94600A7C01009759F0A801BE010E9405
:101870004C0CCE010E94F80AC70104C0CE0102C080
:1018800080E090E0CDB7DEB7EEE00C94430A81E053
:1018900090E0F8940C945C0CFB01DC0102C0019018
:1018A0000D9241505040D8F70895FB01DC010190A2
:1018B0000D920020E1F7089510E0C2E6D0E004C0E8
:1018C000FE010E945A0A2196C336D107C9F7F8943F
:0218D000FFCF48
:1018D200050607080900010203040000270480002E
:1018E2001E001F00200021002200000000007401E1
:1018F2008D000B01C1013C011A012E010000000004
:10190200CC02C102DE02B302BA02B702B4020D0A6D
:101912000047342D312043352044352044352D32C3
:101922002045352045352D382043352D312044358D
:101932002045352044352D322047352047352D3975
:101942002052452D312043352D3120443520453557
:101952002044352D322047352047352D3820524539
:101962002D312047352D3120413520423520423559
:101972002D322043362043362D362044362D322058
:1019820045362044362043362042352D38205245F4
:101992002D310053657269616C20626567696E0062
:1019A2006D6F766520686F6D650066696E69736834
:0619B200206D6F76650058
:00000001FF
